{
  "address": "0xE0fd661B2657bacEF22e8c8C5956000207cdF88a",
  "abi": [
    {
      "inputs": [
        {
          "internalType": "contract Indexer",
          "name": "_indexer",
          "type": "address"
        },
        {
          "internalType": "bytes16",
          "name": "appId",
          "type": "bytes16"
        }
      ],
      "stateMutability": "nonpayable",
      "type": "constructor"
    },
    {
      "inputs": [
        {
          "internalType": "bytes",
          "name": "data",
          "type": "bytes"
        }
      ],
      "name": "FeePaymentFailure",
      "type": "error"
    },
    {
      "inputs": [
        {
          "internalType": "bytes4",
          "name": "data",
          "type": "bytes4"
        }
      ],
      "name": "InvalidRelayMethod",
      "type": "error"
    },
    {
      "inputs": [],
      "name": "InvalidRelayTarget",
      "type": "error"
    },
    {
      "inputs": [],
      "name": "NotSafePaymaster",
      "type": "error"
    },
    {
      "inputs": [],
      "name": "OneTransactionEachTime",
      "type": "error"
    },
    {
      "inputs": [
        {
          "internalType": "bytes",
          "name": "data",
          "type": "bytes"
        }
      ],
      "name": "RelayExecutionFailure",
      "type": "error"
    },
    {
      "inputs": [
        {
          "internalType": "address",
          "name": "origin",
          "type": "address"
        }
      ],
      "name": "UntrustedOrigin",
      "type": "error"
    },
    {
      "inputs": [],
      "name": "invalidZKProof",
      "type": "error"
    },
    {
      "anonymous": false,
      "inputs": [
        {
          "indexed": true,
          "internalType": "bytes32",
          "name": "metadataHash",
          "type": "bytes32"
        },
        {
          "indexed": false,
          "internalType": "bytes",
          "name": "data",
          "type": "bytes"
        }
      ],
      "name": "Metadata",
      "type": "event"
    },
    {
      "inputs": [],
      "name": "ADDRESSES_PROVIDER_V2",
      "outputs": [
        {
          "internalType": "contract IAddressesProvider",
          "name": "",
          "type": "address"
        }
      ],
      "stateMutability": "view",
      "type": "function"
    },
    {
      "inputs": [],
      "name": "APP_ID",
      "outputs": [
        {
          "internalType": "bytes16",
          "name": "",
          "type": "bytes16"
        }
      ],
      "stateMutability": "view",
      "type": "function"
    },
    {
      "inputs": [],
      "name": "IS_IMPERSONATION_MODE",
      "outputs": [
        {
          "internalType": "bool",
          "name": "",
          "type": "bool"
        }
      ],
      "stateMutability": "view",
      "type": "function"
    },
    {
      "inputs": [],
      "name": "SISMO_CONNECT_LIB_VERSION",
      "outputs": [
        {
          "internalType": "uint256",
          "name": "",
          "type": "uint256"
        }
      ],
      "stateMutability": "view",
      "type": "function"
    },
    {
      "inputs": [],
      "name": "config",
      "outputs": [
        {
          "components": [
            {
              "internalType": "bytes16",
              "name": "appId",
              "type": "bytes16"
            },
            {
              "components": [
                {
                  "internalType": "bool",
                  "name": "isImpersonationMode",
                  "type": "bool"
                }
              ],
              "internalType": "struct VaultConfig",
              "name": "vault",
              "type": "tuple"
            }
          ],
          "internalType": "struct SismoConnectConfig",
          "name": "",
          "type": "tuple"
        }
      ],
      "stateMutability": "view",
      "type": "function"
    },
    {
      "inputs": [
        {
          "internalType": "address",
          "name": "safeAddress",
          "type": "address"
        },
        {
          "internalType": "address",
          "name": "contractAddress",
          "type": "address"
        },
        {
          "internalType": "bytes4[]",
          "name": "methods",
          "type": "bytes4[]"
        },
        {
          "internalType": "string",
          "name": "guardMetadataCID",
          "type": "string"
        }
      ],
      "name": "deleteAllowedInteractions",
      "outputs": [],
      "stateMutability": "nonpayable",
      "type": "function"
    },
    {
      "inputs": [
        {
          "internalType": "address",
          "name": "manager",
          "type": "address"
        },
        {
          "internalType": "address",
          "name": "safe",
          "type": "address"
        },
        {
          "components": [
            {
              "components": [
                {
                  "internalType": "address payable",
                  "name": "to",
                  "type": "address"
                },
                {
                  "internalType": "uint256",
                  "name": "value",
                  "type": "uint256"
                },
                {
                  "internalType": "bytes",
                  "name": "data",
                  "type": "bytes"
                }
              ],
              "internalType": "struct SafeProtocolAction[]",
              "name": "actions",
              "type": "tuple[]"
            },
            {
              "internalType": "uint256",
              "name": "nonce",
              "type": "uint256"
            },
            {
              "internalType": "bytes32",
              "name": "metadataHash",
              "type": "bytes32"
            }
          ],
          "internalType": "struct SafeTransaction",
          "name": "safetx",
          "type": "tuple"
        },
        {
          "internalType": "bytes",
          "name": "proofs",
          "type": "bytes"
        }
      ],
      "name": "executeFromPlugin",
      "outputs": [],
      "stateMutability": "nonpayable",
      "type": "function"
    },
    {
      "inputs": [],
      "name": "metadataHash",
      "outputs": [
        {
          "internalType": "bytes32",
          "name": "",
          "type": "bytes32"
        }
      ],
      "stateMutability": "view",
      "type": "function"
    },
    {
      "inputs": [],
      "name": "metadataProvider",
      "outputs": [
        {
          "internalType": "uint256",
          "name": "providerType",
          "type": "uint256"
        },
        {
          "internalType": "bytes",
          "name": "location",
          "type": "bytes"
        }
      ],
      "stateMutability": "view",
      "type": "function"
    },
    {
      "inputs": [],
      "name": "name",
      "outputs": [
        {
          "internalType": "string",
          "name": "",
          "type": "string"
        }
      ],
      "stateMutability": "view",
      "type": "function"
    },
    {
      "inputs": [],
      "name": "requiresRootAccess",
      "outputs": [
        {
          "internalType": "bool",
          "name": "",
          "type": "bool"
        }
      ],
      "stateMutability": "view",
      "type": "function"
    },
    {
      "inputs": [
        {
          "internalType": "address",
          "name": "safeAddress",
          "type": "address"
        },
        {
          "internalType": "address",
          "name": "contractAddress",
          "type": "address"
        },
        {
          "internalType": "bytes4[]",
          "name": "methods",
          "type": "bytes4[]"
        },
        {
          "components": [
            {
              "internalType": "enum ClaimType",
              "name": "claimType",
              "type": "uint8"
            },
            {
              "internalType": "bytes16",
              "name": "groupId",
              "type": "bytes16"
            },
            {
              "internalType": "bytes16",
              "name": "groupTimestamp",
              "type": "bytes16"
            },
            {
              "internalType": "uint256",
              "name": "value",
              "type": "uint256"
            },
            {
              "internalType": "bool",
              "name": "isOptional",
              "type": "bool"
            },
            {
              "internalType": "bool",
              "name": "isSelectableByUser",
              "type": "bool"
            },
            {
              "internalType": "bytes",
              "name": "extraData",
              "type": "bytes"
            }
          ],
          "internalType": "struct ClaimRequest[]",
          "name": "_claims",
          "type": "tuple[]"
        },
        {
          "internalType": "uint256",
          "name": "_timesPerAddress",
          "type": "uint256"
        },
        {
          "internalType": "string",
          "name": "guardMetadataCID",
          "type": "string"
        }
      ],
      "name": "setAllowedInteractions",
      "outputs": [],
      "stateMutability": "nonpayable",
      "type": "function"
    },
    {
      "inputs": [
        {
          "internalType": "bytes4",
          "name": "interfaceId",
          "type": "bytes4"
        }
      ],
      "name": "supportsInterface",
      "outputs": [
        {
          "internalType": "bool",
          "name": "",
          "type": "bool"
        }
      ],
      "stateMutability": "view",
      "type": "function"
    },
    {
      "inputs": [
        {
          "internalType": "bytes",
          "name": "sismoConnectResponseProofs",
          "type": "bytes"
        },
        {
          "internalType": "address",
          "name": "relayFor",
          "type": "address"
        },
        {
          "components": [
            {
              "internalType": "enum ClaimType",
              "name": "claimType",
              "type": "uint8"
            },
            {
              "internalType": "bytes16",
              "name": "groupId",
              "type": "bytes16"
            },
            {
              "internalType": "bytes16",
              "name": "groupTimestamp",
              "type": "bytes16"
            },
            {
              "internalType": "uint256",
              "name": "value",
              "type": "uint256"
            },
            {
              "internalType": "bool",
              "name": "isOptional",
              "type": "bool"
            },
            {
              "internalType": "bool",
              "name": "isSelectableByUser",
              "type": "bool"
            },
            {
              "internalType": "bytes",
              "name": "extraData",
              "type": "bytes"
            }
          ],
          "internalType": "struct ClaimRequest[]",
          "name": "requestRequiredClaims",
          "type": "tuple[]"
        }
      ],
      "name": "verifySismoClaims",
      "outputs": [],
      "stateMutability": "view",
      "type": "function"
    },
    {
      "inputs": [],
      "name": "version",
      "outputs": [
        {
          "internalType": "string",
          "name": "",
          "type": "string"
        }
      ],
      "stateMutability": "view",
      "type": "function"
    }
  ],
  "transactionHash": "0x1e04f10881a0c8e7b229e7dd1068094081811d988eaf24f03679c7c464e75845",
  "args": [
    "0x7b696B84e41aC829517e94C29bDD8740c043ab05",
    "0x2d31f5ac41cdeba21728cca8842ff2f7"
  ],
  "numDeployments": 3,
  "solcInputHash": "5d7bc37f40b33e046a3526c56c0197cd",
  "bytecode": "0x6101a06040523480156200001257600080fd5b506040516200467538038062004675833981016040819052620000359162000852565b620000408162000581565b6040518060a001604052806040518060400160405280600b81526020016a2a32b9ba1028363ab3b4b760a91b8152508152602001604051806040016040528060058152602001640312e302e360dc1b8152508152602001600015158152602001604051806020016040528060008152508152602001620000cb30620005ed60201b6200096c1760201c565b604051602001620000dd9190620008c3565b60408051601f19818403018152919052905280518190600090620001029082620009d5565b506020810151600190620001179082620009d5565b506040810151151560805262000139816200060b602090811b6200098217901c565b8051906020012060a081815250505060a0517f522c683f99251eea7f3b027592e92a5398e7582983be1f7c0f33715ce025740f62000182836200060b60201b620009821760201c565b60405162000191919062000acf565b60405180910390a25080516001600160801b0319166101605260208082015151151561018052604080518082018252601981527f7369736d6f436f6e6e65637456657269666965722d76312e3200000000000000928101929092525163349f642f60e11b8152733cd5334eb64ebbd4003b72022cc25465f1bfcee69163693ec85e9162000222919060040162000acf565b602060405180830381865afa15801562000240573d6000803e3d6000fd5b505050506040513d601f19601f8201168201806040525081019062000266919062000ae4565b6001600160a01b031660c052604080518082018252601781527f61757468526571756573744275696c6465722d76312e310000000000000000006020820152905163349f642f60e11b8152733cd5334eb64ebbd4003b72022cc25465f1bfcee69163693ec85e91620002dc919060040162000acf565b602060405180830381865afa158015620002fa573d6000803e3d6000fd5b505050506040513d601f19601f8201168201806040525081019062000320919062000ae4565b6001600160a01b031660e052604080518082018252601881527f636c61696d526571756573744275696c6465722d76312e3100000000000000006020820152905163349f642f60e11b8152733cd5334eb64ebbd4003b72022cc25465f1bfcee69163693ec85e9162000396919060040162000acf565b602060405180830381865afa158015620003b4573d6000803e3d6000fd5b505050506040513d601f19601f82011682018060405250810190620003da919062000ae4565b6001600160a01b031661010052604080518082018252601581527f7369676e61747572654275696c6465722d76312e3100000000000000000000006020820152905163349f642f60e11b8152733cd5334eb64ebbd4003b72022cc25465f1bfcee69163693ec85e9162000451919060040162000acf565b602060405180830381865afa1580156200046f573d6000803e3d6000fd5b505050506040513d601f19601f8201168201806040525081019062000495919062000ae4565b6001600160a01b031661012052604080518082018252601381527f726571756573744275696c6465722d76312e31000000000000000000000000006020820152905163349f642f60e11b8152733cd5334eb64ebbd4003b72022cc25465f1bfcee69163693ec85e916200050c919060040162000acf565b602060405180830381865afa1580156200052a573d6000803e3d6000fd5b505050506040513d601f19601f8201168201806040525081019062000550919062000ae4565b6001600160a01b0390811661014052600280546001600160a01b03191694909116939093179092555062000c229050565b620005a8604080518082018252600080825282516020818101909452908152909182015290565b604080518082019091526001600160801b03198316815260208101620005e560408051602080820183526000918290528251908101909252815290565b905292915050565b6060620006056001600160a01b038316601462000676565b92915050565b6060600080836000015184602001518560400151866060015187608001516040516020016200063f95949392919062000b04565b60408051601f19818403018152908290526200066093929160200162000b6d565b6040516020818303038152906040529050919050565b606060006200068783600262000bc2565b6200069490600262000bdc565b6001600160401b03811115620006ae57620006ae62000930565b6040519080825280601f01601f191660200182016040528015620006d9576020820181803683370190505b509050600360fc1b81600081518110620006f757620006f762000bf2565b60200101906001600160f81b031916908160001a905350600f60fb1b8160018151811062000729576200072962000bf2565b60200101906001600160f81b031916908160001a90535060006200074f84600262000bc2565b6200075c90600162000bdc565b90505b6001811115620007de576f181899199a1a9b1b9c1cb0b131b232b360811b85600f166010811062000794576200079462000bf2565b1a60f81b828281518110620007ad57620007ad62000bf2565b60200101906001600160f81b031916908160001a90535060049490941c93620007d68162000c08565b90506200075f565b508315620008325760405162461bcd60e51b815260206004820181905260248201527f537472696e67733a20686578206c656e67746820696e73756666696369656e74604482015260640160405180910390fd5b9392505050565b6001600160a01b03811681146200084f57600080fd5b50565b600080604083850312156200086657600080fd5b8251620008738162000839565b60208401519092506001600160801b0319811681146200089257600080fd5b809150509250929050565b60005b83811015620008ba578181015183820152602001620008a0565b50506000910152565b7f68747470733a2f2f6e696a6f65312e6769746875622e696f2f536166652e506181527f796d61737465722f232f7a6b536166655061796d61737465722f0000000000006020820152600082516200092381603a8501602087016200089d565b91909101603a0192915050565b634e487b7160e01b600052604160045260246000fd5b600181811c908216806200095b57607f821691505b6020821081036200097c57634e487b7160e01b600052602260045260246000fd5b50919050565b601f821115620009d057600081815260208120601f850160051c81016020861015620009ab5750805b601f850160051c820191505b81811015620009cc57828155600101620009b7565b5050505b505050565b81516001600160401b03811115620009f157620009f162000930565b62000a098162000a02845462000946565b8462000982565b602080601f83116001811462000a41576000841562000a285750858301515b600019600386901b1c1916600185901b178555620009cc565b600085815260208120601f198616915b8281101562000a725788860151825594840194600190910190840162000a51565b508582101562000a915787850151600019600388901b60f8161c191681555b5050505050600190811b01905550565b6000815180845262000abb8160208601602086016200089d565b601f01601f19169290920160200192915050565b60208152600062000832602083018462000aa1565b60006020828403121562000af757600080fd5b8151620008328162000839565b60a08152600062000b1960a083018862000aa1565b828103602084015262000b2d818862000aa1565b90508515156040840152828103606084015262000b4b818662000aa1565b9050828103608084015262000b61818562000aa1565b98975050505050505050565b600060ff60f81b808660f81b168352808560f81b16600184015250825162000b9d8160028501602087016200089d565b91909101600201949350505050565b634e487b7160e01b600052601160045260246000fd5b808202811582820484141762000605576200060562000bac565b8082018082111562000605576200060562000bac565b634e487b7160e01b600052603260045260246000fd5b60008162000c1a5762000c1a62000bac565b506000190190565b60805160a05160c05160e05161010051610120516101405161016051610180516139d762000c9e600039600081816101c7015261076b015260008181610215015261074a0152600061163701526000610b9f0152600050506000610af601526000610c7b01526000610255015260006101ee01526139d76000f3fe608060405234801561001057600080fd5b50600436106100f55760003560e01c8063943c590511610097578063c5a1d7f011610066578063c5a1d7f014610250578063c9512d9914610285578063d3d72d2a1461028d578063db040a3f146102c457600080fd5b8063943c5905146101af578063a183dc27146101c2578063be193d27146101e9578063c187bbc11461021057600080fd5b806346916301116100d3578063469163011461014c57806347a71f221461017f57806354fd4d501461019257806379502c551461019a57600080fd5b806301ffc9a7146100fa57806306fdde0314610122578063132a675914610137575b600080fd5b61010d610108366004611938565b6102d7565b60405190151581526020015b60405180910390f35b61012a61030e565b60405161011991906119b2565b61014a610145366004611b9b565b61039c565b005b610167733cd5334eb64ebbd4003b72022cc25465f1bfcee681565b6040516001600160a01b039091168152602001610119565b61014a61018d366004611c5c565b6105ba565b61012a610712565b6101a261071f565b6040516101199190611cea565b61014a6101bd366004611d88565b610794565b61010d7f000000000000000000000000000000000000000000000000000000000000000081565b61010d7f000000000000000000000000000000000000000000000000000000000000000081565b6102377f000000000000000000000000000000000000000000000000000000000000000081565b6040516001600160801b03199091168152602001610119565b6102777f000000000000000000000000000000000000000000000000000000000000000081565b604051908152602001610119565b610277600281565b6102b6604080513060208201526003916060910160405160208183030381529060405290509091565b604051610119929190611efe565b61014a6102d2366004611f17565b61088c565b60006001600160e01b03198216631fe741af60e11b148061030857506001600160e01b031982166301ffc9a760e01b145b92915050565b6000805461031b90611fa7565b80601f016020809104026020016040519081016040528092919081815260200182805461034790611fa7565b80156103945780601f1061036957610100808354040283529160200191610394565b820191906000526020600020905b81548152906001019060200180831161037757829003601f168201915b505050505081565b6001600160a01b03881660009081526003602052604090206103bd906109e9565b60000361042d576002546040516370da16cf60e11b81526001600160a01b039091169063e1b42d9e906103f6908b908590600401611fe1565b600060405180830381600087803b15801561041057600080fd5b505af1158015610424573d6000803e3d6000fd5b50505050610492565b600254604051638fe4b44560e01b81526001600160a01b0390911690638fe4b4459061045f908b908590600401611fe1565b600060405180830381600087803b15801561047957600080fd5b505af115801561048d573d6000803e3d6000fd5b505050505b6001600160a01b03881660009081526003602052604090206104b490886109f3565b50604080516001600160a01b038a8116602080840191909152908a16828401528251808303840181526060909201835281519181019190912060008181526004909252918120905b8781101561054b5761054289898381811061051957610519612005565b905060200201602081019061052e9190611938565b60018401906001600160e01b031916610a0f565b506001016104fc565b5060005b858110156105a8578187878381811061056a5761056a612005565b905060200281019061057c919061201b565b81546001810183556000928352602090922090916005020161059e82826121bf565b505060010161054f565b50600401929092555050505050505050565b6001600160a01b03851633146105e3576040516329ea737160e21b815260040160405180910390fd5b600254604051638fe4b44560e01b81526001600160a01b0390911690638fe4b445906106159088908590600401611fe1565b600060405180830381600087803b15801561062f57600080fd5b505af1158015610643573d6000803e3d6000fd5b5050506001600160a01b0386166000908152600360205260409020610669915085610a1b565b61067257600080fd5b604080516001600160a01b03878116602080840191909152908716828401528251808303840181526060909201835281519181019190912060008181526004909252918120905b84811015610708576106ff8686838181106106d6576106d6612005565b90506020020160208101906106eb9190611938565b60018401906001600160e01b031916610a3d565b506001016106b9565b5050505050505050565b6001805461031b90611fa7565b610745604080518082018252600080825282516020818101909452908152909182015290565b61078f7f00000000000000000000000000000000000000000000000000000000000000007f0000000000000000000000000000000000000000000000000000000000000000610a49565b905090565b604080516001808252818301909252600091816020015b6040805160c081018252600080825260208083018290529282018190526060808301829052608083019190915260a082015282526000199092019101816107ab5790505090506107fb6000610ab7565b8160008151811061080e5761080e612005565b6020026020010181905250600061085d8583856108588860405160200161084491906001600160a01b0391909116815260200190565b604051602081830303815290604052610b78565b610c21565b905082518160800151510361088557604051635bf4708f60e11b815260040160405180910390fd5b5050505050565b61089533610d22565b6108df5760405162461bcd60e51b81526020600482015260166024820152756f6e6c7947656c61746f52656c61794552433237373160501b60448201526064015b60405180910390fd5b60006108e9610dd2565b85856108f586806122cd565b600081811061090657610906612005565b90506020028101906109189190612316565b61092690604081019061206b565b60405160200161093a959493929190612355565b6040516020818303038152906040528051906020012060001c905061096185858585610df3565b610885858583611252565b60606103086001600160a01b038316601461133b565b6060600080836000015184602001518560400151866060015187608001516040516020016109b4959493929190612395565b60408051601f19818403018152908290526109d39392916020016123f6565b6040516020818303038152906040529050919050565b6000610308825490565b6000610a08836001600160a01b0384166114d6565b9392505050565b6000610a0883836114d6565b6001600160a01b03811660009081526001830160205260408120541515610a08565b6000610a088383611525565b610a6f604080518082018252600080825282516020818101909452908152909182015290565b6040518060400160405280846001600160801b0319168152602001610aae84604080516020808201835260009091528151908101909152901515815290565b90529392505050565b6040805160c0810182526000808252602082018190528183018190526060808301829052608083019190915260a08201529051633a0ba6ff60e01b81527f00000000000000000000000000000000000000000000000000000000000000006001600160a01b031690633a0ba6ff90610b33908590600401612447565b600060405180830381865afa158015610b50573d6000803e3d6000fd5b505050506040513d6000823e601f3d908101601f19168201604052610308919081019061254f565b604080516060808201835280825260006020830152818301529051631a0d7ccb60e21b81527f00000000000000000000000000000000000000000000000000000000000000006001600160a01b031690636835f32c90610bdc9085906004016119b2565b600060405180830381865afa158015610bf9573d6000803e3d6000fd5b505050506040513d6000823e601f3d908101601f191682016040526103089190810190612607565b6040805160c0810182526000808252602082018190529181019190915260608082018190526080820181905260a0820152600085806020019051810190610c6891906129a6565b90506000610c77868686611618565b90507f00000000000000000000000000000000000000000000000000000000000000006001600160a01b03166312b037ff8383610cb261071f565b6040518463ffffffff1660e01b8152600401610cd093929190612cf9565b600060405180830381865afa158015610ced573d6000803e3d6000fd5b505050506040513d6000823e601f3d908101601f19168201604052610d1591908101906130ff565b925050505b949350505050565b6000466101441480610d35575046610118145b15610d86576001600160a01b0382167322dcc39b2ac376862183dd35a1664798dafc7da6148061030857506001600160a01b03821673ba4082f4961c8fb76231995c967cd9aa40f321b51492915050565b6001600160a01b03821673b539068872230f20456cf38ec52ef2f91af4ae49148061030857506001600160a01b038216738598806401a63ddf52473f1b3c55bc9e33e2d73b1492915050565b6000610ddd33610d22565b610de657503390565b5060131936013560601c90565b6000610dff83806122cd565b9150506001811115610e245760405163d3c11fcf60e01b815260040160405180910390fd5b6000610e3084806122cd565b6000818110610e4157610e41612005565b9050602002810190610e539190612316565b610e5c906131df565b90506000610e6a85806122cd565b6000818110610e7b57610e7b612005565b9050602002810190610e8d9190612316565b610e9b90604081019061206b565b610eaa91600491600091613235565b610eb39161325f565b82516001600160a01b03881660009081526003602052604081206001600160e01b031993909316935091610ee691610a1b565b905080610f0957604051600162d9e30d60e01b0319815260040160405180910390fd5b8251604080516001600160a01b038a811660208084019190915293168183015281518082038301815260609091018252805190830120600081815260049093529120610f5860018201856116b5565b15610f8257604051635dd5516360e11b81526001600160e01b0319851660048201526024016108d6565b8054156111055761110587610f95610dd2565b83546040805160208084028201810190925282815291869160009084015b828210156110fc576000848152602090206040805160e08101909152600584029091018054829060ff166004811115610fee57610fee61203b565b6004811115610fff57610fff61203b565b8152815461010090819004608090811b6001600160801b031990811660208501526001850154821b16604084015260028401546060840152600384015460ff8082161515928501929092529190910416151560a082015260048201805460c09092019161106b90611fa7565b80601f016020809104026020016040519081016040528092919081815260200182805461109790611fa7565b80156110e45780601f106110b9576101008083540402835291602001916110e4565b820191906000526020600020905b8154815290600101906020018083116110c757829003601f168201915b50505050508152505081526020019060010190610fb3565b50505050610794565b845160405161112a9186916020019182526001600160a01b0316602082015260400190565b6040516020818303038152906040528051906020012091508060030160008381526020019081526020016000205481600401541161116757600080fd5b60008281526003820160205260408120805491611183836132a5565b9091555050604051630f99191560e01b81526001600160a01b038b1690630f991915906111b6908c908c906004016132be565b6000604051808303816000875af19250505080156111f657506040513d6000823e601f3d908101601f191682016040526111f39190810190613409565b60015b611245573d808015611224576040519150601f19603f3d011682016040523d82523d6000602084013e611229565b606091505b508060405163175f91fb60e21b81526004016108d691906119b2565b5050505050505050505050565b600061127536604719013560601c36605b19013560601c366033190135856116cd565b604051630f99191560e01b81529091506001600160a01b03851690630f991915906112a690869085906004016134b9565b6000604051808303816000875af19250505080156112e657506040513d6000823e601f3d908101601f191682016040526112e39190810190613409565b60015b610885573d808015611314576040519150601f19603f3d011682016040523d82523d6000602084013e611319565b606091505b50806040516349620fc960e01b81526004016108d691906119b2565b50505050565b6060600061134a836002613569565b611355906002613580565b6001600160401b0381111561136c5761136c611a28565b6040519080825280601f01601f191660200182016040528015611396576020820181803683370190505b509050600360fc1b816000815181106113b1576113b1612005565b60200101906001600160f81b031916908160001a905350600f60fb1b816001815181106113e0576113e0612005565b60200101906001600160f81b031916908160001a9053506000611404846002613569565b61140f906001613580565b90505b6001811115611487576f181899199a1a9b1b9c1cb0b131b232b360811b85600f166010811061144357611443612005565b1a60f81b82828151811061145957611459612005565b60200101906001600160f81b031916908160001a90535060049490941c9361148081613593565b9050611412565b508315610a085760405162461bcd60e51b815260206004820181905260248201527f537472696e67733a20686578206c656e67746820696e73756666696369656e7460448201526064016108d6565b600081815260018301602052604081205461151d57508154600181810184556000848152602080822090930184905584548482528286019093526040902091909155610308565b506000610308565b6000818152600183016020526040812054801561160e5760006115496001836135aa565b855490915060009061155d906001906135aa565b90508181146115c257600086600001828154811061157d5761157d612005565b90600052602060002001549050808760000184815481106115a0576115a0612005565b6000918252602080832090910192909255918252600188019052604090208390555b85548690806115d3576115d36135bd565b600190038181906000526020600020016000905590558560010160008681526020019081526020016000206000905560019350505050610308565b6000915050610308565b6116206118e8565b604051634c92019b60e11b81526001600160a01b037f000000000000000000000000000000000000000000000000000000000000000016906399240336906116709087908790879060040161367c565b600060405180830381865afa15801561168d573d6000803e3d6000fd5b505050506040513d6000823e601f3d908101601f19168201604052610d1a9190810190613869565b60008181526001830160205260408120541515610a08565b60408051606080820183528152600060208201819052818301819052825160018082528185019094529192909190816020015b604080516060808201835260008083526020830152918101919091528152602001906001900390816117005790505090506001600160a01b03861673eeeeeeeeeeeeeeeeeeeeeeeeeeeeeeeeeeeeeeee148061176357506001600160a01b038616155b156117fb57848160008151811061177c5761177c612005565b6020026020010151600001906001600160a01b031690816001600160a01b03168152505083816000815181106117b4576117b4612005565b6020026020010151602001818152505060405180602001604052806000815250816000815181106117e7576117e7612005565b6020026020010151604001819052506118bf565b858160008151811061180f5761180f612005565b6020026020010151600001906001600160a01b031690816001600160a01b03168152505060008160008151811061184857611848612005565b60209081029190910181015101526040516001600160a01b03861660248201526044810185905260640160408051601f198184030181529190526020810180516001600160e01b031663a9059cbb60e01b179052815182906000906118af576118af612005565b6020026020010151604001819052505b60408051606081018252918252602082018490526000908201529050949350505050565b905290565b604051806080016040528060006001600160801b031916815260200160608152602001606081526020016118e3604051806060016040528060608152602001600015158152602001606081525090565b60006020828403121561194a57600080fd5b81356001600160e01b031981168114610a0857600080fd5b60005b8381101561197d578181015183820152602001611965565b50506000910152565b6000815180845261199e816020860160208601611962565b601f01601f19169290920160200192915050565b602081526000610a086020830184611986565b6001600160a01b03811681146119da57600080fd5b50565b60008083601f8401126119ef57600080fd5b5081356001600160401b03811115611a0657600080fd5b6020830191508360208260051b8501011115611a2157600080fd5b9250929050565b634e487b7160e01b600052604160045260246000fd5b60405160e081016001600160401b0381118282101715611a6057611a60611a28565b60405290565b60405160c081016001600160401b0381118282101715611a6057611a60611a28565b604051606081016001600160401b0381118282101715611a6057611a60611a28565b60405160a081016001600160401b0381118282101715611a6057611a60611a28565b604051608081016001600160401b0381118282101715611a6057611a60611a28565b604051601f8201601f191681016001600160401b0381118282101715611b1657611b16611a28565b604052919050565b60006001600160401b03821115611b3757611b37611a28565b50601f01601f191660200190565b600082601f830112611b5657600080fd5b8135611b69611b6482611b1e565b611aee565b818152846020838601011115611b7e57600080fd5b816020850160208301376000918101602001919091529392505050565b60008060008060008060008060c0898b031215611bb757600080fd5b8835611bc2816119c5565b97506020890135611bd2816119c5565b965060408901356001600160401b0380821115611bee57600080fd5b611bfa8c838d016119dd565b909850965060608b0135915080821115611c1357600080fd5b611c1f8c838d016119dd565b909650945060808b0135935060a08b0135915080821115611c3f57600080fd5b50611c4c8b828c01611b45565b9150509295985092959890939650565b600080600080600060808688031215611c7457600080fd5b8535611c7f816119c5565b94506020860135611c8f816119c5565b935060408601356001600160401b0380821115611cab57600080fd5b611cb789838a016119dd565b90955093506060880135915080821115611cd057600080fd5b50611cdd88828901611b45565b9150509295509295909350565b81516001600160801b03191681526020808301515115159082015260408101610308565b60006001600160401b03821115611d2757611d27611a28565b5060051b60200190565b600581106119da57600080fd5b8035611d4981611d31565b919050565b6001600160801b0319811681146119da57600080fd5b8035611d4981611d4e565b80151581146119da57600080fd5b8035611d4981611d6f565b600080600060608486031215611d9d57600080fd5b83356001600160401b0380821115611db457600080fd5b611dc087838801611b45565b94506020915081860135611dd3816119c5565b9350604086013581811115611de757600080fd5b8601601f81018813611df857600080fd5b8035611e06611b6482611d0e565b81815260059190911b8201840190848101908a831115611e2557600080fd5b8584015b83811015611eed57803586811115611e4057600080fd5b850160e0818e03601f19011215611e5657600080fd5b611e5e611a3e565b611e69898301611d3e565b8152611e7760408301611d64565b89820152611e8760608301611d64565b604082015260808201356060820152611ea260a08301611d7d565b6080820152611eb360c08301611d7d565b60a082015260e082013588811115611ecb5760008081fd5b611ed98f8b83860101611b45565b60c083015250845250918601918601611e29565b508096505050505050509250925092565b828152604060208201526000610d1a6040830184611986565b60008060008060808587031215611f2d57600080fd5b8435611f38816119c5565b93506020850135611f48816119c5565b925060408501356001600160401b0380821115611f6457600080fd5b9086019060608289031215611f7857600080fd5b90925060608601359080821115611f8e57600080fd5b50611f9b87828801611b45565b91505092959194509250565b600181811c90821680611fbb57607f821691505b602082108103611fdb57634e487b7160e01b600052602260045260246000fd5b50919050565b6001600160a01b0383168152604060208201819052600090610d1a90830184611986565b634e487b7160e01b600052603260045260246000fd5b6000823560de1983360301811261203157600080fd5b9190910192915050565b634e487b7160e01b600052602160045260246000fd5b6000813561030881611d4e565b6000813561030881611d6f565b6000808335601e1984360301811261208257600080fd5b8301803591506001600160401b0382111561209c57600080fd5b602001915036819003821315611a2157600080fd5b601f8211156120fb57600081815260208120601f850160051c810160208610156120d85750805b601f850160051c820191505b818110156120f7578281556001016120e4565b5050505b505050565b6001600160401b0383111561211757612117611a28565b61212b836121258354611fa7565b836120b1565b6000601f84116001811461215f57600085156121475750838201355b600019600387901b1c1916600186901b178355610885565b600083815260209020601f19861690835b828110156121905786850135825560209485019460019092019101612170565b50868210156121ad5760001960f88860031b161c19848701351681555b505060018560011b0183555050505050565b81356121ca81611d31565b600581106121da576121da61203b565b60ff1982541660ff821681178355505061222d6121f960208401612051565b825470ffffffffffffffffffffffffffffffff00191660789190911c70ffffffffffffffffffffffffffffffff0016178255565b61225761223c60408401612051565b600183018160801c6001600160801b03198254161781555050565b60608201356002820155600381016122886122746080850161205e565b825490151560ff1660ff1991909116178255565b6122b161229760a0850161205e565b82805461ff00191691151560081b61ff0016919091179055565b506122bf60c083018361206b565b611335818360048601612100565b6000808335601e198436030181126122e457600080fd5b8301803591506001600160401b038211156122fe57600080fd5b6020019150600581901b3603821315611a2157600080fd5b60008235605e1983360301811261203157600080fd5b81835281816020850137506000828201602090810191909152601f909101601f19169091010190565b6001600160a01b03868116825285811660208301528416604082015260806060820181905260009061238a908301848661232c565b979650505050505050565b60a0815260006123a860a0830188611986565b82810360208401526123ba8188611986565b9050851515604084015282810360608401526123d68186611986565b905082810360808401526123ea8185611986565b98975050505050505050565b600060ff60f81b808660f81b168352808560f81b166001840152508251612424816002850160208701611962565b91909101600201949350505050565b600681106124435761244361203b565b9052565b602081016103088284612433565b805160068110611d4957600080fd5b8051611d4981611d6f565b600082601f83011261248057600080fd5b815161248e611b6482611b1e565b8181528460208386010111156124a357600080fd5b610d1a826020830160208701611962565b600060c082840312156124c657600080fd5b6124ce611a66565b90506124d982612455565b81526020820151602082015260408201516124f381611d6f565b6040820152606082015161250681611d6f565b6060820152608082015161251981611d6f565b608082015260a08201516001600160401b0381111561253757600080fd5b6125438482850161246f565b60a08301525092915050565b60006020828403121561256157600080fd5b81516001600160401b0381111561257757600080fd5b610d1a848285016124b4565b60006060828403121561259557600080fd5b61259d611a88565b905081516001600160401b03808211156125b657600080fd5b6125c28583860161246f565b8352602084015191506125d482611d6f565b81602084015260408401519150808211156125ee57600080fd5b506125fb8482850161246f565b60408301525092915050565b60006020828403121561261957600080fd5b81516001600160401b0381111561262f57600080fd5b610d1a84828501612583565b8051611d4981611d4e565b600082601f83011261265757600080fd5b81516020612667611b6483611d0e565b82815260059290921b8401810191818101908684111561268657600080fd5b8286015b848110156127445780516001600160401b03808211156126aa5760008081fd5b9088019060a0828b03601f19018113156126c45760008081fd5b6126cc611aaa565b6126d7888501612455565b81526040808501516126e881611d6f565b828a01526060858101516126fb81611d6f565b80838501525060809150818601518184015250828501519250838311156127225760008081fd5b6127308d8a8588010161246f565b90820152865250505091830191830161268a565b509695505050505050565b8051611d4981611d31565b600082601f83011261276b57600080fd5b8151602061277b611b6483611d0e565b82815260059290921b8401810191818101908684111561279a57600080fd5b8286015b848110156127445780516001600160401b03808211156127be5760008081fd5b9088019060c0828b03601f19018113156127d85760008081fd5b6127e0611a66565b878401516127ed81611d31565b81526040848101516127fe81611d4e565b828a015260608581015161281181611d4e565b80838501525060809150612826828701612464565b9083015260a0858101518284015292850151928484111561284957600091508182fd5b6128578e8b8689010161246f565b9083015250865250505091830191830161279e565b600082601f83011261287d57600080fd5b8151602061288d611b6483611d0e565b82815260059290921b840181019181810190868411156128ac57600080fd5b8286015b848110156127445780516001600160401b03808211156128d05760008081fd5b9088019060a0828b03601f19018113156128ea5760008081fd5b6128f2611aaa565b87840151838111156129045760008081fd5b6129128d8a83880101612646565b825250604080850151848111156129295760008081fd5b6129378e8b8389010161275a565b8a840152506060808601518284015260809150818601518581111561295c5760008081fd5b61296a8f8c838a010161246f565b828501525050828501519250838311156129845760008081fd5b6129928d8a8588010161246f565b9082015286525050509183019183016128b0565b6000602082840312156129b857600080fd5b81516001600160401b03808211156129cf57600080fd5b9083019060a082860312156129e357600080fd5b6129eb611aaa565b82516129f681611d4e565b81526020830151612a0681611d4e565b602082015260408381015190820152606083015182811115612a2757600080fd5b612a338782860161246f565b606083015250608083015182811115612a4b57600080fd5b612a578782860161286c565b60808301525095945050505050565b600581106124435761244361203b565b600081518084526020808501808196508360051b8101915082860160005b85811015612b13578284038952815160c0612ab0868351612a66565b818701516001600160801b031990811687890152604080840151909116908701526060808301511515908701526080808301519087015260a091820151918601819052612aff81870183611986565b9a87019a9550505090840190600101612a94565b5091979650505050505050565b600081518084526020808501808196508360051b8101915082860160005b85811015612b13578284038952815160e0612b5a868351612a66565b818701516001600160801b031990811687890152604080840151909116908701526060808301519087015260808083015115159087015260a08083015115159087015260c091820151918601819052612bb581870183611986565b9a87019a9550505090840190600101612b3e565b6000815160608452612bde6060850182611986565b905060208301511515602085015260408301518482036040860152612c038282611986565b95945050505050565b600060808084016001600160801b03198451168552602080850151838288015282815180855260a094508489019150848160051b8a0101848401935060005b82811015612cc057609f198b8303018452845160c0612c6b848351612433565b81880151848901526040808301511515908501526060808301511515908501528982015115158a8501529088015188840182905290612cac81850183611986565b968801969588019593505050600101612c4b565b506040890151965089810360408b0152612cda8188612b20565b965050505050505060608301518482036060860152612c038282612bc9565b600060808083526001600160801b0319808751168285015260208088015182811660a087015250604088015191508160c08601526060880151915060a060e0860152612d49610120860183611986565b88840151868203607f1901610100880152805180835291935082019082840190600581901b8501840160005b82811015612e8257601f198783030184528451805160a0808552815190850181905260c0600582901b86018101928a01919086019060005b81811015612e175760bf198886030183528351612dcb868251612433565b8c81015115158d870152604081015115156040870152606081015160608701528e810151905060a08f870152612e0460a0870182611986565b955050928b0192918b0191600101612dad565b505050508782015184820389860152612e308282612a76565b9150506040820151604085015260608201518482036060860152612e548282611986565b9150508982015191508381038a850152612e6e8183611986565b968801969588019593505050600101612d75565b50888103858a0152612e94818c612c0c565b8a516001600160801b03191660408b015260208b015151151560608b01529750610d1a9650505050505050565b600082601f830112612ed257600080fd5b81516020612ee2611b6483611d0e565b82815260059290921b84018101918181019086841115612f0157600080fd5b8286015b848110156127445780516001600160401b0380821115612f255760008081fd5b9088019060a0828b03601f1901811315612f3f5760008081fd5b612f47611aaa565b612f52888501612455565b8152604080850151612f6381611d6f565b808a8401525060608086015182840152608091508186015185811115612f895760008081fd5b612f978f8c838a010161246f565b82850152505082850151925083831115612fb15760008081fd5b612fbf8d8a8588010161246f565b908201528652505050918301918301612f05565b600082601f830112612fe457600080fd5b81516020612ff4611b6483611d0e565b82815260059290921b8401810191818101908684111561301357600080fd5b8286015b848110156127445780516001600160401b03808211156130375760008081fd5b9088019060e0828b03601f19018113156130515760008081fd5b613059611a3e565b61306488850161274f565b8152604061307381860161263b565b89830152606061308481870161263b565b828401526080915081860151818401525060a080860151858111156130a95760008081fd5b6130b78f8c838a010161246f565b838501525060c09150818601518184015250828501519250838311156130dd5760008081fd5b6130eb8d8a8588010161246f565b908201528652505050918301918301613017565b60006020828403121561311157600080fd5b81516001600160401b038082111561312857600080fd5b9083019060c0828603121561313c57600080fd5b613144611a66565b61314d8361263b565b815261315b6020840161263b565b60208201526040830151604082015260608301518281111561317c57600080fd5b61318887828601612ec1565b6060830152506080830151828111156131a057600080fd5b6131ac87828601612fd3565b60808301525060a0830151828111156131c457600080fd5b6131d08782860161246f565b60a08301525095945050505050565b6000606082360312156131f157600080fd5b6131f9611a88565b8235613204816119c5565b81526020838101359082015260408301356001600160401b0381111561322957600080fd5b6125fb36828601611b45565b6000808585111561324557600080fd5b8386111561325257600080fd5b5050820193919092039150565b6001600160e01b031981358181169160048510156132875780818660040360031b1b83161692505b505092915050565b634e487b7160e01b600052601160045260246000fd5b6000600182016132b7576132b761328f565b5060010190565b6001600160a01b038381168252604060208084018290526000929060a08501863536889003601e190181126132f257600080fd5b870180358382016001600160401b038083111561330e57600080fd5b8260051b80360383131561332157600080fd5b60608b8a01819052958490528a0160c0908101956000918c0136879003607e19015b868410156133e2578d890360bf19018252853581811261336257600080fd5b88018a810135613371816119c5565b8c168a52808d01358b8b01528381013536829003603e1901811261339457600080fd5b018c8101908b0135868111156133a957600080fd5b8036038213156133b857600080fd5b848e8c01526133ca858c01828461232c565b9a505050948901946001939093019290890190613343565b5050878d0135818d0152505050505050838701356080870152809450505050509392505050565b6000602080838503121561341c57600080fd5b82516001600160401b038082111561343357600080fd5b818501915085601f83011261344757600080fd5b8151613455611b6482611d0e565b81815260059190911b8301840190848101908883111561347457600080fd5b8585015b838110156134ac578051858111156134905760008081fd5b61349e8b89838a010161246f565b845250918601918601613478565b5098975050505050505050565b6000604060018060a01b0380861684526020828186015260a0850186516060808689015282825180855260c08a01915060c08160051b8b01019450858401935060005b81811015613545578a860360bf190183528451805189168752878101518888015289015189870185905261353285880182611986565b96505093860193918601916001016134fc565b50505083890151818901525050838701516080870152809450505050509392505050565b80820281158282048414176103085761030861328f565b808201808211156103085761030861328f565b6000816135a2576135a261328f565b506000190190565b818103818111156103085761030861328f565b634e487b7160e01b600052603160045260246000fd5b600081518084526020808501808196508360051b8101915082860160005b85811015612b13578284038952815160e061360d868351612a66565b818701516001600160801b031990811687890152604080840151909116908701526060808301519087015260808083015115159087015260a08083015115159087015260c09182015191860181905261366881870183611986565b9a87019a95505050908401906001016135f1565b60006060808301818452808751808352608092508286019150828160051b8701016020808b0160005b8481101561371957607f198a8503018652815160c06136c5868351612433565b81850151868601526040808301511515908701528982015115158a8701528882015115158987015260a09182015191860181905261370581870183611986565b9785019795505050908201906001016136a5565b50508782039088015261372c818a6135d3565b94505050505082810360408401526137448185612bc9565b9695505050505050565b600082601f83011261375f57600080fd5b8151602061376f611b6483611d0e565b82815260059290921b8401810191818101908684111561378e57600080fd5b8286015b848110156127445780516001600160401b03808211156137b25760008081fd5b9088019060e0828b03601f19018113156137cc5760008081fd5b6137d4611a3e565b6137df88850161274f565b815260406137ee81860161263b565b8983015260606137ff81870161263b565b828401526080915081860151818401525060a061381d818701612464565b8284015260c09150613830828701612464565b908301529184015191838311156138475760008081fd5b6138558d8a8588010161246f565b908201528652505050918301918301613792565b6000602080838503121561387c57600080fd5b82516001600160401b038082111561389357600080fd5b90840190608082870312156138a757600080fd5b6138af611acc565b82516138ba81611d4e565b815282840151828111156138cd57600080fd5b8301601f810188136138de57600080fd5b80516138ec611b6482611d0e565b81815260059190911b8201860190868101908a83111561390b57600080fd5b8784015b83811015613943578051878111156139275760008081fd5b6139358d8b838901016124b4565b84525091880191880161390f565b50808886015250505050604083015193508184111561396157600080fd5b61396d8785850161374e565b6040820152606083015193508184111561398657600080fd5b61399287858501612583565b6060820152969550505050505056fea264697066735822122038868f6e3f54dea6c8afe91eab312d046dc553deeee3dd4831af836cc997180564736f6c63430008120033",
  "devdoc": {
    "kind": "dev",
    "methods": {
      "metadataProvider()": {
        "returns": {
          "location": "bytes",
          "providerType": "uint256 Type of metadata provider"
        }
      },
      "supportsInterface(bytes4)": {
        "details": "Returns true if this contract implements the interface defined by `interfaceId`. See the corresponding https://eips.ethereum.org/EIPS/eip-165#how-interfaces-are-identified[EIP section] to learn more about how these ids are created. This function call must use less than 30 000 gas."
      }
    },
    "version": 1
  },
  "userdoc": {
    "kind": "user",
    "methods": {
      "metadataProvider()": {
        "notice": "A function that returns information about the type of metadata provider and its location.         For more information on metadata provider, refer to https://github.com/safe-global/safe-core-protocol-specs/."
      },
      "name()": {
        "notice": "A funtion that returns name of the plugin"
      },
      "requiresRootAccess()": {
        "notice": "A function that indicates if the plugin requires root access to a Safe."
      },
      "version()": {
        "notice": "A function that returns version of the plugin"
      }
    },
    "version": 1
  },
  "storageLayout": {
    "storage": [
      {
        "astId": 9663,
        "contract": "contracts/SafePaymasterPlugin.sol:SafePaymasterPlugin",
        "label": "name",
        "offset": 0,
        "slot": "0",
        "type": "t_string_storage"
      },
      {
        "astId": 9665,
        "contract": "contracts/SafePaymasterPlugin.sol:SafePaymasterPlugin",
        "label": "version",
        "offset": 0,
        "slot": "1",
        "type": "t_string_storage"
      },
      {
        "astId": 9888,
        "contract": "contracts/SafePaymasterPlugin.sol:SafePaymasterPlugin",
        "label": "indexer",
        "offset": 0,
        "slot": "2",
        "type": "t_contract(Indexer)10817"
      },
      {
        "astId": 9946,
        "contract": "contracts/SafePaymasterPlugin.sol:SafePaymasterPlugin",
        "label": "safeWhitelistedContracts",
        "offset": 0,
        "slot": "3",
        "type": "t_mapping(t_address,t_struct(AddressSet)2991_storage)"
      },
      {
        "astId": 9951,
        "contract": "contracts/SafePaymasterPlugin.sol:SafePaymasterPlugin",
        "label": "safeGuard",
        "offset": 0,
        "slot": "4",
        "type": "t_mapping(t_bytes32,t_struct(GuardInfo)9941_storage)"
      }
    ],
    "types": {
      "t_address": {
        "encoding": "inplace",
        "label": "address",
        "numberOfBytes": "20"
      },
      "t_array(t_bytes32)dyn_storage": {
        "base": "t_bytes32",
        "encoding": "dynamic_array",
        "label": "bytes32[]",
        "numberOfBytes": "32"
      },
      "t_array(t_struct(ClaimRequest)8766_storage)dyn_storage": {
        "base": "t_struct(ClaimRequest)8766_storage",
        "encoding": "dynamic_array",
        "label": "struct ClaimRequest[]",
        "numberOfBytes": "32"
      },
      "t_bool": {
        "encoding": "inplace",
        "label": "bool",
        "numberOfBytes": "1"
      },
      "t_bytes16": {
        "encoding": "inplace",
        "label": "bytes16",
        "numberOfBytes": "16"
      },
      "t_bytes32": {
        "encoding": "inplace",
        "label": "bytes32",
        "numberOfBytes": "32"
      },
      "t_bytes_storage": {
        "encoding": "bytes",
        "label": "bytes",
        "numberOfBytes": "32"
      },
      "t_contract(Indexer)10817": {
        "encoding": "inplace",
        "label": "contract Indexer",
        "numberOfBytes": "20"
      },
      "t_enum(ClaimType)8786": {
        "encoding": "inplace",
        "label": "enum ClaimType",
        "numberOfBytes": "1"
      },
      "t_mapping(t_address,t_struct(AddressSet)2991_storage)": {
        "encoding": "mapping",
        "key": "t_address",
        "label": "mapping(address => struct EnumerableSet.AddressSet)",
        "numberOfBytes": "32",
        "value": "t_struct(AddressSet)2991_storage"
      },
      "t_mapping(t_bytes32,t_struct(GuardInfo)9941_storage)": {
        "encoding": "mapping",
        "key": "t_bytes32",
        "label": "mapping(bytes32 => struct SafePaymasterPlugin.GuardInfo)",
        "numberOfBytes": "32",
        "value": "t_struct(GuardInfo)9941_storage"
      },
      "t_mapping(t_bytes32,t_uint256)": {
        "encoding": "mapping",
        "key": "t_bytes32",
        "label": "mapping(bytes32 => uint256)",
        "numberOfBytes": "32",
        "value": "t_uint256"
      },
      "t_string_storage": {
        "encoding": "bytes",
        "label": "string",
        "numberOfBytes": "32"
      },
      "t_struct(AddressSet)2991_storage": {
        "encoding": "inplace",
        "label": "struct EnumerableSet.AddressSet",
        "members": [
          {
            "astId": 2990,
            "contract": "contracts/SafePaymasterPlugin.sol:SafePaymasterPlugin",
            "label": "_inner",
            "offset": 0,
            "slot": "0",
            "type": "t_struct(Set)2676_storage"
          }
        ],
        "numberOfBytes": "64"
      },
      "t_struct(Bytes32Set)2870_storage": {
        "encoding": "inplace",
        "label": "struct EnumerableSet.Bytes32Set",
        "members": [
          {
            "astId": 2869,
            "contract": "contracts/SafePaymasterPlugin.sol:SafePaymasterPlugin",
            "label": "_inner",
            "offset": 0,
            "slot": "0",
            "type": "t_struct(Set)2676_storage"
          }
        ],
        "numberOfBytes": "64"
      },
      "t_struct(ClaimRequest)8766_storage": {
        "encoding": "inplace",
        "label": "struct ClaimRequest",
        "members": [
          {
            "astId": 8753,
            "contract": "contracts/SafePaymasterPlugin.sol:SafePaymasterPlugin",
            "label": "claimType",
            "offset": 0,
            "slot": "0",
            "type": "t_enum(ClaimType)8786"
          },
          {
            "astId": 8755,
            "contract": "contracts/SafePaymasterPlugin.sol:SafePaymasterPlugin",
            "label": "groupId",
            "offset": 1,
            "slot": "0",
            "type": "t_bytes16"
          },
          {
            "astId": 8757,
            "contract": "contracts/SafePaymasterPlugin.sol:SafePaymasterPlugin",
            "label": "groupTimestamp",
            "offset": 0,
            "slot": "1",
            "type": "t_bytes16"
          },
          {
            "astId": 8759,
            "contract": "contracts/SafePaymasterPlugin.sol:SafePaymasterPlugin",
            "label": "value",
            "offset": 0,
            "slot": "2",
            "type": "t_uint256"
          },
          {
            "astId": 8761,
            "contract": "contracts/SafePaymasterPlugin.sol:SafePaymasterPlugin",
            "label": "isOptional",
            "offset": 0,
            "slot": "3",
            "type": "t_bool"
          },
          {
            "astId": 8763,
            "contract": "contracts/SafePaymasterPlugin.sol:SafePaymasterPlugin",
            "label": "isSelectableByUser",
            "offset": 1,
            "slot": "3",
            "type": "t_bool"
          },
          {
            "astId": 8765,
            "contract": "contracts/SafePaymasterPlugin.sol:SafePaymasterPlugin",
            "label": "extraData",
            "offset": 0,
            "slot": "4",
            "type": "t_bytes_storage"
          }
        ],
        "numberOfBytes": "160"
      },
      "t_struct(GuardInfo)9941_storage": {
        "encoding": "inplace",
        "label": "struct SafePaymasterPlugin.GuardInfo",
        "members": [
          {
            "astId": 9931,
            "contract": "contracts/SafePaymasterPlugin.sol:SafePaymasterPlugin",
            "label": "claims",
            "offset": 0,
            "slot": "0",
            "type": "t_array(t_struct(ClaimRequest)8766_storage)dyn_storage"
          },
          {
            "astId": 9934,
            "contract": "contracts/SafePaymasterPlugin.sol:SafePaymasterPlugin",
            "label": "contractAllowedMethods",
            "offset": 0,
            "slot": "1",
            "type": "t_struct(Bytes32Set)2870_storage"
          },
          {
            "astId": 9938,
            "contract": "contracts/SafePaymasterPlugin.sol:SafePaymasterPlugin",
            "label": "timesPerAddress",
            "offset": 0,
            "slot": "3",
            "type": "t_mapping(t_bytes32,t_uint256)"
          },
          {
            "astId": 9940,
            "contract": "contracts/SafePaymasterPlugin.sol:SafePaymasterPlugin",
            "label": "allowedTimesPerAddress",
            "offset": 0,
            "slot": "4",
            "type": "t_uint256"
          }
        ],
        "numberOfBytes": "160"
      },
      "t_struct(Set)2676_storage": {
        "encoding": "inplace",
        "label": "struct EnumerableSet.Set",
        "members": [
          {
            "astId": 2671,
            "contract": "contracts/SafePaymasterPlugin.sol:SafePaymasterPlugin",
            "label": "_values",
            "offset": 0,
            "slot": "0",
            "type": "t_array(t_bytes32)dyn_storage"
          },
          {
            "astId": 2675,
            "contract": "contracts/SafePaymasterPlugin.sol:SafePaymasterPlugin",
            "label": "_indexes",
            "offset": 0,
            "slot": "1",
            "type": "t_mapping(t_bytes32,t_uint256)"
          }
        ],
        "numberOfBytes": "64"
      },
      "t_uint256": {
        "encoding": "inplace",
        "label": "uint256",
        "numberOfBytes": "32"
      }
    }
  }
}