{
  "address": "0xaB312E5040aDdE20A1623f1CB36682268bbeC300",
  "abi": [
    {
      "inputs": [
        {
          "internalType": "address",
          "name": "_trustedOrigin",
          "type": "address"
        }
      ],
      "stateMutability": "nonpayable",
      "type": "constructor"
    },
    {
      "inputs": [
        {
          "internalType": "bytes",
          "name": "data",
          "type": "bytes"
        }
      ],
      "name": "FeePaymentFailure",
      "type": "error"
    },
    {
      "inputs": [
        {
          "internalType": "bytes4",
          "name": "data",
          "type": "bytes4"
        }
      ],
      "name": "InvalidRelayMethod",
      "type": "error"
    },
    {
      "inputs": [],
      "name": "NotPaymasterOwner",
      "type": "error"
    },
    {
      "inputs": [
        {
          "internalType": "bytes",
          "name": "data",
          "type": "bytes"
        }
      ],
      "name": "RelayExecutionFailure",
      "type": "error"
    },
    {
      "inputs": [
        {
          "internalType": "address",
          "name": "origin",
          "type": "address"
        }
      ],
      "name": "UntrustedOrigin",
      "type": "error"
    },
    {
      "anonymous": false,
      "inputs": [
        {
          "indexed": true,
          "internalType": "bytes32",
          "name": "metadataHash",
          "type": "bytes32"
        },
        {
          "indexed": false,
          "internalType": "bytes",
          "name": "data",
          "type": "bytes"
        }
      ],
      "name": "Metadata",
      "type": "event"
    },
    {
      "inputs": [
        {
          "internalType": "contract ISafeProtocolManager",
          "name": "manager",
          "type": "address"
        },
        {
          "internalType": "contract ISafe",
          "name": "safe",
          "type": "address"
        },
        {
          "components": [
            {
              "components": [
                {
                  "internalType": "address payable",
                  "name": "to",
                  "type": "address"
                },
                {
                  "internalType": "uint256",
                  "name": "value",
                  "type": "uint256"
                },
                {
                  "internalType": "bytes",
                  "name": "data",
                  "type": "bytes"
                }
              ],
              "internalType": "struct SafeProtocolAction[]",
              "name": "actions",
              "type": "tuple[]"
            },
            {
              "internalType": "uint256",
              "name": "nonce",
              "type": "uint256"
            },
            {
              "internalType": "bytes32",
              "name": "metadataHash",
              "type": "bytes32"
            }
          ],
          "internalType": "struct SafeTransaction",
          "name": "safetx",
          "type": "tuple"
        }
      ],
      "name": "executeFromPlugin",
      "outputs": [],
      "stateMutability": "nonpayable",
      "type": "function"
    },
    {
      "inputs": [],
      "name": "metadataHash",
      "outputs": [
        {
          "internalType": "bytes32",
          "name": "",
          "type": "bytes32"
        }
      ],
      "stateMutability": "view",
      "type": "function"
    },
    {
      "inputs": [],
      "name": "metadataProvider",
      "outputs": [
        {
          "internalType": "uint256",
          "name": "providerType",
          "type": "uint256"
        },
        {
          "internalType": "bytes",
          "name": "location",
          "type": "bytes"
        }
      ],
      "stateMutability": "view",
      "type": "function"
    },
    {
      "inputs": [],
      "name": "name",
      "outputs": [
        {
          "internalType": "string",
          "name": "",
          "type": "string"
        }
      ],
      "stateMutability": "view",
      "type": "function"
    },
    {
      "inputs": [],
      "name": "requiresRootAccess",
      "outputs": [
        {
          "internalType": "bool",
          "name": "",
          "type": "bool"
        }
      ],
      "stateMutability": "view",
      "type": "function"
    },
    {
      "inputs": [
        {
          "internalType": "address",
          "name": "safeAddress",
          "type": "address"
        },
        {
          "internalType": "address",
          "name": "contractAddress",
          "type": "address"
        },
        {
          "internalType": "bytes4",
          "name": "method",
          "type": "bytes4"
        }
      ],
      "name": "setAllowedInteractions",
      "outputs": [],
      "stateMutability": "nonpayable",
      "type": "function"
    },
    {
      "inputs": [
        {
          "internalType": "bytes4",
          "name": "interfaceId",
          "type": "bytes4"
        }
      ],
      "name": "supportsInterface",
      "outputs": [
        {
          "internalType": "bool",
          "name": "",
          "type": "bool"
        }
      ],
      "stateMutability": "view",
      "type": "function"
    },
    {
      "inputs": [],
      "name": "trustedOrigin",
      "outputs": [
        {
          "internalType": "address",
          "name": "",
          "type": "address"
        }
      ],
      "stateMutability": "view",
      "type": "function"
    },
    {
      "inputs": [],
      "name": "version",
      "outputs": [
        {
          "internalType": "string",
          "name": "",
          "type": "string"
        }
      ],
      "stateMutability": "view",
      "type": "function"
    }
  ],
  "transactionHash": "0xf29073360c0d521a5b57cc5a80b05ca6322871df3bf83641d22d84ec7a5c5958",
  "args": [
    "0x0000000000000000000000000000000000000000"
  ],
  "numDeployments": 5,
  "solcInputHash": "77a0386a1930d9b709cd3949fda8f45f",
  "bytecode": "0x60e06040523480156200001157600080fd5b5060405162002ff238038062002ff2833981810160405281019062000037919062000566565b6040518060a001604052806040518060400160405280600b81526020017f5465737420506c7567696e00000000000000000000000000000000000000000081525081526020016040518060400160405280600581526020017f312e302e300000000000000000000000000000000000000000000000000000008152508152602001600015158152602001604051806020016040528060008152508152602001620000ec30620001ff60201b620007681760201c565b604051602001620000fe919062000687565b604051602081830303815290604052815250808060000151600090816200012691906200091c565b508060200151600190816200013c91906200091c565b508060400151151560808115158152505062000163816200023460201b620007951760201c565b8051906020012060a081815250505060a0517f522c683f99251eea7f3b027592e92a5398e7582983be1f7c0f33715ce025740f620001ac836200023460201b620007951760201c565b604051620001bb919062000a71565b60405180910390a2508073ffffffffffffffffffffffffffffffffffffffff1660c08173ffffffffffffffffffffffffffffffffffffffff16815250505062000dcb565b60606200022d8273ffffffffffffffffffffffffffffffffffffffff16601460ff16620002a160201b60201c565b9050919050565b6060600080836000015184602001518560400151866060015187608001516040516020016200026895949392919062000b04565b6040516020818303038152906040526040516020016200028b9392919062000c08565b6040516020818303038152906040529050919050565b606060006002836002620002b6919062000c76565b620002c2919062000cc1565b67ffffffffffffffff811115620002de57620002dd620006ad565b5b6040519080825280601f01601f191660200182016040528015620003115781602001600182028036833780820191505090505b5090507f3000000000000000000000000000000000000000000000000000000000000000816000815181106200034c576200034b62000cfc565b5b60200101907effffffffffffffffffffffffffffffffffffffffffffffffffffffffffffff1916908160001a9053507f780000000000000000000000000000000000000000000000000000000000000081600181518110620003b357620003b262000cfc565b5b60200101907effffffffffffffffffffffffffffffffffffffffffffffffffffffffffffff1916908160001a90535060006001846002620003f5919062000c76565b62000401919062000cc1565b90505b6001811115620004ab577f3031323334353637383961626364656600000000000000000000000000000000600f86166010811062000447576200044662000cfc565b5b1a60f81b82828151811062000461576200046062000cfc565b5b60200101907effffffffffffffffffffffffffffffffffffffffffffffffffffffffffffff1916908160001a905350600485901c945080620004a39062000d2b565b905062000404565b5060008414620004f2576040517f08c379a0000000000000000000000000000000000000000000000000000000008152600401620004e99062000da9565b60405180910390fd5b8091505092915050565b600080fd5b600073ffffffffffffffffffffffffffffffffffffffff82169050919050565b60006200052e8262000501565b9050919050565b620005408162000521565b81146200054c57600080fd5b50565b600081519050620005608162000535565b92915050565b6000602082840312156200057f576200057e620004fc565b5b60006200058f848285016200054f565b91505092915050565b600081905092915050565b7f68747470733a2f2f6e696a6f65312e6769746875622e696f2f536166652e506160008201527f796d61737465722f232f72656c61792f00000000000000000000000000000000602082015250565b60006200060160308362000598565b91506200060e82620005a3565b603082019050919050565b600081519050919050565b60005b838110156200064457808201518184015260208101905062000627565b60008484015250505050565b60006200065d8262000619565b62000669818562000598565b93506200067b81856020860162000624565b80840191505092915050565b60006200069482620005f2565b9150620006a2828462000650565b915081905092915050565b7f4e487b7100000000000000000000000000000000000000000000000000000000600052604160045260246000fd5b7f4e487b7100000000000000000000000000000000000000000000000000000000600052602260045260246000fd5b600060028204905060018216806200072457607f821691505b6020821081036200073a5762000739620006dc565b5b50919050565b60008190508160005260206000209050919050565b60006020601f8301049050919050565b600082821b905092915050565b600060088302620007a47fffffffffffffffffffffffffffffffffffffffffffffffffffffffffffffffff8262000765565b620007b0868362000765565b95508019841693508086168417925050509392505050565b6000819050919050565b6000819050919050565b6000620007fd620007f7620007f184620007c8565b620007d2565b620007c8565b9050919050565b6000819050919050565b6200081983620007dc565b62000831620008288262000804565b84845462000772565b825550505050565b600090565b6200084862000839565b620008558184846200080e565b505050565b5b818110156200087d57620008716000826200083e565b6001810190506200085b565b5050565b601f821115620008cc57620008968162000740565b620008a18462000755565b81016020851015620008b1578190505b620008c9620008c08562000755565b8301826200085a565b50505b505050565b600082821c905092915050565b6000620008f160001984600802620008d1565b1980831691505092915050565b60006200090c8383620008de565b9150826002028217905092915050565b620009278262000619565b67ffffffffffffffff811115620009435762000942620006ad565b5b6200094f82546200070b565b6200095c82828562000881565b600060209050601f8311600181146200099457600084156200097f578287015190505b6200098b8582620008fe565b865550620009fb565b601f198416620009a48662000740565b60005b82811015620009ce57848901518255600182019150602085019450602081019050620009a7565b86831015620009ee5784890151620009ea601f891682620008de565b8355505b6001600288020188555050505b505050505050565b600081519050919050565b600082825260208201905092915050565b6000601f19601f8301169050919050565b600062000a3d8262000a03565b62000a49818562000a0e565b935062000a5b81856020860162000624565b62000a668162000a1f565b840191505092915050565b6000602082019050818103600083015262000a8d818462000a30565b905092915050565b600082825260208201905092915050565b600062000ab38262000619565b62000abf818562000a95565b935062000ad181856020860162000624565b62000adc8162000a1f565b840191505092915050565b60008115159050919050565b62000afe8162000ae7565b82525050565b600060a082019050818103600083015262000b20818862000aa6565b9050818103602083015262000b36818762000aa6565b905062000b47604083018662000af3565b818103606083015262000b5b818562000aa6565b9050818103608083015262000b71818462000aa6565b90509695505050505050565b600060ff82169050919050565b60008160f81b9050919050565b600062000ba48262000b8a565b9050919050565b62000bc062000bba8262000b7d565b62000b97565b82525050565b600081905092915050565b600062000bde8262000a03565b62000bea818562000bc6565b935062000bfc81856020860162000624565b80840191505092915050565b600062000c16828662000bab565b60018201915062000c28828562000bab565b60018201915062000c3a828462000bd1565b9150819050949350505050565b7f4e487b7100000000000000000000000000000000000000000000000000000000600052601160045260246000fd5b600062000c8382620007c8565b915062000c9083620007c8565b925082820262000ca081620007c8565b9150828204841483151762000cba5762000cb962000c47565b5b5092915050565b600062000cce82620007c8565b915062000cdb83620007c8565b925082820190508082111562000cf65762000cf562000c47565b5b92915050565b7f4e487b7100000000000000000000000000000000000000000000000000000000600052603260045260246000fd5b600062000d3882620007c8565b91506000820362000d4e5762000d4d62000c47565b5b600182039050919050565b7f537472696e67733a20686578206c656e67746820696e73756666696369656e74600082015250565b600062000d9160208362000a95565b915062000d9e8262000d59565b602082019050919050565b6000602082019050818103600083015262000dc48162000d82565b9050919050565b60805160a05160c0516121e962000e09600039600081816102a1015281816102e1015261052301526000610707015260006106e301526121e96000f3fe608060405234801561001057600080fd5b50600436106100935760003560e01c806366f5c27d1161006657806366f5c27d146101205780639b483f8a1461013e578063be193d271461015a578063c5a1d7f014610178578063d3d72d2a1461019657610093565b806301ffc9a7146100985780630227bad3146100c857806306fdde03146100e457806354fd4d5014610102575b600080fd5b6100b260048036038101906100ad9190610ff1565b6101b5565b6040516100bf9190611039565b60405180910390f35b6100e260048036038101906100dd9190611126565b610287565b005b6100ec610405565b6040516100f99190611225565b60405180910390f35b61010a610493565b6040516101179190611225565b60405180910390f35b610128610521565b6040516101359190611256565b60405180910390f35b6101586004803603810190610153919061129d565b610545565b005b6101626106e1565b60405161016f9190611039565b60405180910390f35b610180610705565b60405161018d9190611309565b60405180910390f35b61019e610729565b6040516101ac929190611392565b60405180910390f35b60007f3fce835e000000000000000000000000000000000000000000000000000000007bffffffffffffffffffffffffffffffffffffffffffffffffffffffff1916827bffffffffffffffffffffffffffffffffffffffffffffffffffffffff1916148061028057507f01ffc9a7000000000000000000000000000000000000000000000000000000007bffffffffffffffffffffffffffffffffffffffffffffffffffffffff1916827bffffffffffffffffffffffffffffffffffffffffffffffffffffffff1916145b9050919050565b600073ffffffffffffffffffffffffffffffffffffffff167f000000000000000000000000000000000000000000000000000000000000000073ffffffffffffffffffffffffffffffffffffffff161415801561033057507f000000000000000000000000000000000000000000000000000000000000000073ffffffffffffffffffffffffffffffffffffffff163373ffffffffffffffffffffffffffffffffffffffff1614155b1561037257336040517f895e14d40000000000000000000000000000000000000000000000000000000081526004016103699190611256565b60405180910390fd5b61037d8383836107fe565b600030848484806000019061039291906113d1565b60008181106103a4576103a3611434565b5b90506020028101906103b69190611463565b80604001906103c5919061148b565b6040516020016103d99594939291906115cb565b6040516020818303038152906040528051906020012060001c90506103ff8484836108f3565b50505050565b6000805461041290611648565b80601f016020809104026020016040519081016040528092919081815260200182805461043e90611648565b801561048b5780601f106104605761010080835404028352916020019161048b565b820191906000526020600020905b81548152906001019060200180831161046e57829003601f168201915b505050505081565b600180546104a090611648565b80601f01602080910402602001604051908101604052809291908181526020018280546104cc90611648565b80156105195780601f106104ee57610100808354040283529160200191610519565b820191906000526020600020905b8154815290600101906020018083116104fc57829003601f168201915b505050505081565b7f000000000000000000000000000000000000000000000000000000000000000081565b8273ffffffffffffffffffffffffffffffffffffffff16632f54bf6e336040518263ffffffff1660e01b815260040161057e9190611256565b602060405180830381865afa15801561059b573d6000803e3d6000fd5b505050506040513d601f19601f820116820180604052508101906105bf91906116a5565b6105f5576040517f77a796bd00000000000000000000000000000000000000000000000000000000815260040160405180910390fd5b6001600260008573ffffffffffffffffffffffffffffffffffffffff1673ffffffffffffffffffffffffffffffffffffffff16815260200190815260200160002060000160008473ffffffffffffffffffffffffffffffffffffffff1673ffffffffffffffffffffffffffffffffffffffff1681526020019081526020016000206000837bffffffffffffffffffffffffffffffffffffffffffffffffffffffff19167bffffffffffffffffffffffffffffffffffffffffffffffffffffffff1916815260200190815260200160002060006101000a81548160ff021916908315150217905550505050565b7f000000000000000000000000000000000000000000000000000000000000000081565b7f000000000000000000000000000000000000000000000000000000000000000081565b600060606003808111156107405761073f6116d2565b5b9150306040516020016107539190611256565b60405160208183030381529060405290509091565b606061078e8273ffffffffffffffffffffffffffffffffffffffff16601460ff16610ce8565b9050919050565b6060600080836000015184602001518560400151866060015187608001516040516020016107c7959493929190611701565b6040516020818303038152906040526040516020016107e8939291906117ef565b6040516020818303038152906040529050919050565b8273ffffffffffffffffffffffffffffffffffffffff16630f99191583836040518363ffffffff1660e01b8152600401610839929190611bef565b6000604051808303816000875af192505050801561087a57506040513d6000823e3d601f19601f820116820180604052508101906108779190611e2b565b60015b6108ed573d80600081146108aa576040519150601f19603f3d011682016040523d82523d6000602084013e6108af565b606091505b50806040517f5d7e47ec0000000000000000000000000000000000000000000000000000000081526004016108e49190611e74565b60405180910390fd5b50505050565b60006108fd610f24565b90506000610909610f33565b90506000610915610f42565b90506000600167ffffffffffffffff81111561093457610933611c24565b5b60405190808252806020026020018201604052801561096d57816020015b61095a610f4e565b8152602001906001900390816109525790505b50905073eeeeeeeeeeeeeeeeeeeeeeeeeeeeeeeeeeeeeeee73ffffffffffffffffffffffffffffffffffffffff168373ffffffffffffffffffffffffffffffffffffffff1614806109ea5750600073ffffffffffffffffffffffffffffffffffffffff168373ffffffffffffffffffffffffffffffffffffffff16145b15610a9f578381600081518110610a0457610a03611434565b5b60200260200101516000019073ffffffffffffffffffffffffffffffffffffffff16908173ffffffffffffffffffffffffffffffffffffffff16815250508181600081518110610a5757610a56611434565b5b602002602001015160200181815250506040518060200160405280600081525081600081518110610a8b57610a8a611434565b5b602002602001015160400181905250610bcc565b8281600081518110610ab457610ab3611434565b5b60200260200101516000019073ffffffffffffffffffffffffffffffffffffffff16908173ffffffffffffffffffffffffffffffffffffffff1681525050600081600081518110610b0857610b07611434565b5b602002602001015160200181815250508382604051602401610b2b929190611e96565b6040516020818303038152906040527fa9059cbb000000000000000000000000000000000000000000000000000000007bffffffffffffffffffffffffffffffffffffffffffffffffffffffff19166020820180517bffffffffffffffffffffffffffffffffffffffffffffffffffffffff838183161783525050505081600081518110610bbc57610bbb611434565b5b6020026020010151604001819052505b600060405180606001604052808381526020018781526020016000801b81525090508773ffffffffffffffffffffffffffffffffffffffff16630f99191588836040518363ffffffff1660e01b8152600401610c29929190612049565b6000604051808303816000875af1925050508015610c6a57506040513d6000823e3d601f19601f82011682018060405250810190610c679190611e2b565b60015b610cdd573d8060008114610c9a576040519150601f19603f3d011682016040523d82523d6000602084013e610c9f565b606091505b50806040517f49620fc9000000000000000000000000000000000000000000000000000000008152600401610cd49190611e74565b60405180910390fd5b505050505050505050565b606060006002836002610cfb91906120a8565b610d0591906120ea565b67ffffffffffffffff811115610d1e57610d1d611c24565b5b6040519080825280601f01601f191660200182016040528015610d505781602001600182028036833780820191505090505b5090507f300000000000000000000000000000000000000000000000000000000000000081600081518110610d8857610d87611434565b5b60200101907effffffffffffffffffffffffffffffffffffffffffffffffffffffffffffff1916908160001a9053507f780000000000000000000000000000000000000000000000000000000000000081600181518110610dec57610deb611434565b5b60200101907effffffffffffffffffffffffffffffffffffffffffffffffffffffffffffff1916908160001a90535060006001846002610e2c91906120a8565b610e3691906120ea565b90505b6001811115610ed6577f3031323334353637383961626364656600000000000000000000000000000000600f861660108110610e7857610e77611434565b5b1a60f81b828281518110610e8f57610e8e611434565b5b60200101907effffffffffffffffffffffffffffffffffffffffffffffffffffffffffffff1916908160001a905350600485901c945080610ecf9061211e565b9050610e39565b5060008414610f1a576040517f08c379a0000000000000000000000000000000000000000000000000000000008152600401610f1190612193565b60405180910390fd5b8091505092915050565b6000604836033560601c905090565b6000603436033560601c905090565b60006020360335905090565b6040518060600160405280600073ffffffffffffffffffffffffffffffffffffffff16815260200160008152602001606081525090565b6000604051905090565b600080fd5b600080fd5b60007fffffffff0000000000000000000000000000000000000000000000000000000082169050919050565b610fce81610f99565b8114610fd957600080fd5b50565b600081359050610feb81610fc5565b92915050565b60006020828403121561100757611006610f8f565b5b600061101584828501610fdc565b91505092915050565b60008115159050919050565b6110338161101e565b82525050565b600060208201905061104e600083018461102a565b92915050565b600073ffffffffffffffffffffffffffffffffffffffff82169050919050565b600061107f82611054565b9050919050565b600061109182611074565b9050919050565b6110a181611086565b81146110ac57600080fd5b50565b6000813590506110be81611098565b92915050565b60006110cf82611074565b9050919050565b6110df816110c4565b81146110ea57600080fd5b50565b6000813590506110fc816110d6565b92915050565b600080fd5b60006060828403121561111d5761111c611102565b5b81905092915050565b60008060006060848603121561113f5761113e610f8f565b5b600061114d868287016110af565b935050602061115e868287016110ed565b925050604084013567ffffffffffffffff81111561117f5761117e610f94565b5b61118b86828701611107565b9150509250925092565b600081519050919050565b600082825260208201905092915050565b60005b838110156111cf5780820151818401526020810190506111b4565b60008484015250505050565b6000601f19601f8301169050919050565b60006111f782611195565b61120181856111a0565b93506112118185602086016111b1565b61121a816111db565b840191505092915050565b6000602082019050818103600083015261123f81846111ec565b905092915050565b61125081611074565b82525050565b600060208201905061126b6000830184611247565b92915050565b61127a81611074565b811461128557600080fd5b50565b60008135905061129781611271565b92915050565b6000806000606084860312156112b6576112b5610f8f565b5b60006112c486828701611288565b93505060206112d586828701611288565b92505060406112e686828701610fdc565b9150509250925092565b6000819050919050565b611303816112f0565b82525050565b600060208201905061131e60008301846112fa565b92915050565b6000819050919050565b61133781611324565b82525050565b600081519050919050565b600082825260208201905092915050565b60006113648261133d565b61136e8185611348565b935061137e8185602086016111b1565b611387816111db565b840191505092915050565b60006040820190506113a7600083018561132e565b81810360208301526113b98184611359565b90509392505050565b600080fd5b600080fd5b600080fd5b600080833560016020038436030381126113ee576113ed6113c2565b5b80840192508235915067ffffffffffffffff8211156114105761140f6113c7565b5b60208301925060208202360383131561142c5761142b6113cc565b5b509250929050565b7f4e487b7100000000000000000000000000000000000000000000000000000000600052603260045260246000fd5b60008235600160600383360303811261147f5761147e6113c2565b5b80830191505092915050565b600080833560016020038436030381126114a8576114a76113c2565b5b80840192508235915067ffffffffffffffff8211156114ca576114c96113c7565b5b6020830192506001820236038313156114e6576114e56113cc565b5b509250929050565b6000819050919050565b600061151361150e61150984611054565b6114ee565b611054565b9050919050565b6000611525826114f8565b9050919050565b60006115378261151a565b9050919050565b6115478161152c565b82525050565b60006115588261151a565b9050919050565b6115688161154d565b82525050565b60006115798261151a565b9050919050565b6115898161156e565b82525050565b82818337600083830152505050565b60006115aa8385611348565b93506115b783858461158f565b6115c0836111db565b840190509392505050565b60006080820190506115e0600083018861153e565b6115ed602083018761155f565b6115fa6040830186611580565b818103606083015261160d81848661159e565b90509695505050505050565b7f4e487b7100000000000000000000000000000000000000000000000000000000600052602260045260246000fd5b6000600282049050600182168061166057607f821691505b60208210810361167357611672611619565b5b50919050565b6116828161101e565b811461168d57600080fd5b50565b60008151905061169f81611679565b92915050565b6000602082840312156116bb576116ba610f8f565b5b60006116c984828501611690565b91505092915050565b7f4e487b7100000000000000000000000000000000000000000000000000000000600052602160045260246000fd5b600060a082019050818103600083015261171b81886111ec565b9050818103602083015261172f81876111ec565b905061173e604083018661102a565b818103606083015261175081856111ec565b9050818103608083015261176481846111ec565b90509695505050505050565b600060ff82169050919050565b60008160f81b9050919050565b60006117958261177d565b9050919050565b6117ad6117a882611770565b61178a565b82525050565b600081905092915050565b60006117c98261133d565b6117d381856117b3565b93506117e38185602086016111b1565b80840191505092915050565b60006117fb828661179c565b60018201915061180b828561179c565b60018201915061181b82846117be565b9150819050949350505050565b600080fd5b600080fd5b600080fd5b6000808335600160200384360303811261185457611853611832565b5b83810192508235915060208301925067ffffffffffffffff82111561187c5761187b611828565b5b6020820236038313156118925761189161182d565b5b509250929050565b600082825260208201905092915050565b6000819050919050565b60006118c082611054565b9050919050565b6118d0816118b5565b81146118db57600080fd5b50565b6000813590506118ed816118c7565b92915050565b600061190260208401846118de565b905092915050565b611913816118b5565b82525050565b61192281611324565b811461192d57600080fd5b50565b60008135905061193f81611919565b92915050565b60006119546020840184611930565b905092915050565b61196581611324565b82525050565b6000808335600160200384360303811261198857611987611832565b5b83810192508235915060208301925067ffffffffffffffff8211156119b0576119af611828565b5b6001820236038313156119c6576119c561182d565b5b509250929050565b600082825260208201905092915050565b60006119eb83856119ce565b93506119f883858461158f565b611a01836111db565b840190509392505050565b600060608301611a1f60008401846118f3565b611a2c600086018261190a565b50611a3a6020840184611945565b611a47602086018261195c565b50611a55604084018461196b565b8583036040870152611a688382846119df565b925050508091505092915050565b6000611a828383611a0c565b905092915050565b600082356001606003833603038112611aa657611aa5611832565b5b82810191505092915050565b6000602082019050919050565b6000611acb838561189a565b935083602084028501611add846118ab565b8060005b87811015611b21578484038952611af88284611a8a565b611b028582611a76565b9450611b0d83611ab2565b925060208a01995050600181019050611ae1565b50829750879450505050509392505050565b611b3c816112f0565b8114611b4757600080fd5b50565b600081359050611b5981611b33565b92915050565b6000611b6e6020840184611b4a565b905092915050565b611b7f816112f0565b82525050565b600060608301611b986000840184611837565b8583036000870152611bab838284611abf565b92505050611bbc6020840184611945565b611bc9602086018261195c565b50611bd76040840184611b5f565b611be46040860182611b76565b508091505092915050565b6000604082019050611c046000830185611580565b8181036020830152611c168184611b85565b90509392505050565b600080fd5b7f4e487b7100000000000000000000000000000000000000000000000000000000600052604160045260246000fd5b611c5c826111db565b810181811067ffffffffffffffff82111715611c7b57611c7a611c24565b5b80604052505050565b6000611c8e610f85565b9050611c9a8282611c53565b919050565b600067ffffffffffffffff821115611cba57611cb9611c24565b5b602082029050602081019050919050565b600080fd5b600080fd5b600067ffffffffffffffff821115611cf057611cef611c24565b5b611cf9826111db565b9050602081019050919050565b6000611d19611d1484611cd5565b611c84565b905082815260208101848484011115611d3557611d34611cd0565b5b611d408482856111b1565b509392505050565b600082601f830112611d5d57611d5c611c1f565b5b8151611d6d848260208601611d06565b91505092915050565b6000611d89611d8484611c9f565b611c84565b90508083825260208201905060208402830185811115611dac57611dab611ccb565b5b835b81811015611df357805167ffffffffffffffff811115611dd157611dd0611c1f565b5b808601611dde8982611d48565b85526020850194505050602081019050611dae565b5050509392505050565b600082601f830112611e1257611e11611c1f565b5b8151611e22848260208601611d76565b91505092915050565b600060208284031215611e4157611e40610f8f565b5b600082015167ffffffffffffffff811115611e5f57611e5e610f94565b5b611e6b84828501611dfd565b91505092915050565b60006020820190508181036000830152611e8e8184611359565b905092915050565b6000604082019050611eab6000830185611247565b611eb8602083018461132e565b9392505050565b600081519050919050565b6000819050602082019050919050565b6000611ee58261133d565b611eef81856119ce565b9350611eff8185602086016111b1565b611f08816111db565b840191505092915050565b6000606083016000830151611f2b600086018261190a565b506020830151611f3e602086018261195c565b5060408301518482036040860152611f568282611eda565b9150508091505092915050565b6000611f6f8383611f13565b905092915050565b6000602082019050919050565b6000611f8f82611ebf565b611f99818561189a565b935083602082028501611fab85611eca565b8060005b85811015611fe75784840389528151611fc88582611f63565b9450611fd383611f77565b925060208a01995050600181019050611faf565b50829750879550505050505092915050565b600060608301600083015184820360008601526120168282611f84565b915050602083015161202b602086018261195c565b50604083015161203e6040860182611b76565b508091505092915050565b600060408201905061205e6000830185611580565b81810360208301526120708184611ff9565b90509392505050565b7f4e487b7100000000000000000000000000000000000000000000000000000000600052601160045260246000fd5b60006120b382611324565b91506120be83611324565b92508282026120cc81611324565b915082820484148315176120e3576120e2612079565b5b5092915050565b60006120f582611324565b915061210083611324565b925082820190508082111561211857612117612079565b5b92915050565b600061212982611324565b91506000820361213c5761213b612079565b5b600182039050919050565b7f537472696e67733a20686578206c656e67746820696e73756666696369656e74600082015250565b600061217d6020836111a0565b915061218882612147565b602082019050919050565b600060208201905081810360008301526121ac81612170565b905091905056fea2646970667358221220c26865962c54bacc00f0347b49a8416dc51cded8d4d94605a7b2d8e6baef2c1764736f6c63430008120033",
  "devdoc": {
    "kind": "dev",
    "methods": {
      "metadataProvider()": {
        "returns": {
          "location": "bytes",
          "providerType": "uint256 Type of metadata provider"
        }
      },
      "supportsInterface(bytes4)": {
        "details": "Returns true if this contract implements the interface defined by `interfaceId`. See the corresponding https://eips.ethereum.org/EIPS/eip-165#how-interfaces-are-identified[EIP section] to learn more about how these ids are created. This function call must use less than 30 000 gas."
      }
    },
    "version": 1
  },
  "userdoc": {
    "kind": "user",
    "methods": {
      "metadataProvider()": {
        "notice": "A function that returns information about the type of metadata provider and its location.         For more information on metadata provider, refer to https://github.com/safe-global/safe-core-protocol-specs/."
      },
      "name()": {
        "notice": "A funtion that returns name of the plugin"
      },
      "requiresRootAccess()": {
        "notice": "A function that indicates if the plugin requires root access to a Safe."
      },
      "version()": {
        "notice": "A function that returns version of the plugin"
      }
    },
    "version": 1
  },
  "storageLayout": {
    "storage": [
      {
        "astId": 2685,
        "contract": "contracts/SafePaymasterPlugin.sol:SafePaymasterPlugin",
        "label": "name",
        "offset": 0,
        "slot": "0",
        "type": "t_string_storage"
      },
      {
        "astId": 2687,
        "contract": "contracts/SafePaymasterPlugin.sol:SafePaymasterPlugin",
        "label": "version",
        "offset": 0,
        "slot": "1",
        "type": "t_string_storage"
      },
      {
        "astId": 2943,
        "contract": "contracts/SafePaymasterPlugin.sol:SafePaymasterPlugin",
        "label": "safeGuard",
        "offset": 0,
        "slot": "2",
        "type": "t_mapping(t_address,t_struct(SafeGuard)2938_storage)"
      }
    ],
    "types": {
      "t_address": {
        "encoding": "inplace",
        "label": "address",
        "numberOfBytes": "20"
      },
      "t_bool": {
        "encoding": "inplace",
        "label": "bool",
        "numberOfBytes": "1"
      },
      "t_bytes4": {
        "encoding": "inplace",
        "label": "bytes4",
        "numberOfBytes": "4"
      },
      "t_mapping(t_address,t_mapping(t_bytes4,t_bool))": {
        "encoding": "mapping",
        "key": "t_address",
        "label": "mapping(address => mapping(bytes4 => bool))",
        "numberOfBytes": "32",
        "value": "t_mapping(t_bytes4,t_bool)"
      },
      "t_mapping(t_address,t_mapping(t_bytes4,t_uint256))": {
        "encoding": "mapping",
        "key": "t_address",
        "label": "mapping(address => mapping(bytes4 => uint256))",
        "numberOfBytes": "32",
        "value": "t_mapping(t_bytes4,t_uint256)"
      },
      "t_mapping(t_address,t_struct(SafeGuard)2938_storage)": {
        "encoding": "mapping",
        "key": "t_address",
        "label": "mapping(address => struct SafePaymasterPlugin.SafeGuard)",
        "numberOfBytes": "32",
        "value": "t_struct(SafeGuard)2938_storage"
      },
      "t_mapping(t_bytes4,t_bool)": {
        "encoding": "mapping",
        "key": "t_bytes4",
        "label": "mapping(bytes4 => bool)",
        "numberOfBytes": "32",
        "value": "t_bool"
      },
      "t_mapping(t_bytes4,t_uint256)": {
        "encoding": "mapping",
        "key": "t_bytes4",
        "label": "mapping(bytes4 => uint256)",
        "numberOfBytes": "32",
        "value": "t_uint256"
      },
      "t_string_storage": {
        "encoding": "bytes",
        "label": "string",
        "numberOfBytes": "32"
      },
      "t_struct(SafeGuard)2938_storage": {
        "encoding": "inplace",
        "label": "struct SafePaymasterPlugin.SafeGuard",
        "members": [
          {
            "astId": 2931,
            "contract": "contracts/SafePaymasterPlugin.sol:SafePaymasterPlugin",
            "label": "allowedCalls",
            "offset": 0,
            "slot": "0",
            "type": "t_mapping(t_address,t_mapping(t_bytes4,t_bool))"
          },
          {
            "astId": 2937,
            "contract": "contracts/SafePaymasterPlugin.sol:SafePaymasterPlugin",
            "label": "userAllowancePerMethod",
            "offset": 0,
            "slot": "1",
            "type": "t_mapping(t_address,t_mapping(t_bytes4,t_uint256))"
          }
        ],
        "numberOfBytes": "64"
      },
      "t_uint256": {
        "encoding": "inplace",
        "label": "uint256",
        "numberOfBytes": "32"
      }
    }
  }
}