{
  "address": "0xF0Bb62526157a094Db0e8EdEbb61483e51100DfC",
  "abi": [
    {
      "inputs": [
        {
          "internalType": "contract Indexer",
          "name": "_indexer",
          "type": "address"
        },
        {
          "internalType": "bytes16",
          "name": "appId",
          "type": "bytes16"
        }
      ],
      "stateMutability": "nonpayable",
      "type": "constructor"
    },
    {
      "inputs": [
        {
          "internalType": "bytes",
          "name": "data",
          "type": "bytes"
        }
      ],
      "name": "FeePaymentFailure",
      "type": "error"
    },
    {
      "inputs": [
        {
          "internalType": "bytes4",
          "name": "data",
          "type": "bytes4"
        }
      ],
      "name": "InvalidRelayMethod",
      "type": "error"
    },
    {
      "inputs": [],
      "name": "InvalidRelayTarget",
      "type": "error"
    },
    {
      "inputs": [],
      "name": "NotSafePaymaster",
      "type": "error"
    },
    {
      "inputs": [],
      "name": "OneTransactionEachTime",
      "type": "error"
    },
    {
      "inputs": [
        {
          "internalType": "bytes",
          "name": "data",
          "type": "bytes"
        }
      ],
      "name": "RelayExecutionFailure",
      "type": "error"
    },
    {
      "inputs": [
        {
          "internalType": "address",
          "name": "origin",
          "type": "address"
        }
      ],
      "name": "UntrustedOrigin",
      "type": "error"
    },
    {
      "inputs": [],
      "name": "invalidZKProof",
      "type": "error"
    },
    {
      "anonymous": false,
      "inputs": [
        {
          "indexed": true,
          "internalType": "bytes32",
          "name": "metadataHash",
          "type": "bytes32"
        },
        {
          "indexed": false,
          "internalType": "bytes",
          "name": "data",
          "type": "bytes"
        }
      ],
      "name": "Metadata",
      "type": "event"
    },
    {
      "inputs": [],
      "name": "ADDRESSES_PROVIDER_V2",
      "outputs": [
        {
          "internalType": "contract IAddressesProvider",
          "name": "",
          "type": "address"
        }
      ],
      "stateMutability": "view",
      "type": "function"
    },
    {
      "inputs": [],
      "name": "APP_ID",
      "outputs": [
        {
          "internalType": "bytes16",
          "name": "",
          "type": "bytes16"
        }
      ],
      "stateMutability": "view",
      "type": "function"
    },
    {
      "inputs": [],
      "name": "IS_IMPERSONATION_MODE",
      "outputs": [
        {
          "internalType": "bool",
          "name": "",
          "type": "bool"
        }
      ],
      "stateMutability": "view",
      "type": "function"
    },
    {
      "inputs": [],
      "name": "SISMO_CONNECT_LIB_VERSION",
      "outputs": [
        {
          "internalType": "uint256",
          "name": "",
          "type": "uint256"
        }
      ],
      "stateMutability": "view",
      "type": "function"
    },
    {
      "inputs": [],
      "name": "config",
      "outputs": [
        {
          "components": [
            {
              "internalType": "bytes16",
              "name": "appId",
              "type": "bytes16"
            },
            {
              "components": [
                {
                  "internalType": "bool",
                  "name": "isImpersonationMode",
                  "type": "bool"
                }
              ],
              "internalType": "struct VaultConfig",
              "name": "vault",
              "type": "tuple"
            }
          ],
          "internalType": "struct SismoConnectConfig",
          "name": "",
          "type": "tuple"
        }
      ],
      "stateMutability": "view",
      "type": "function"
    },
    {
      "inputs": [
        {
          "internalType": "address",
          "name": "safeAddress",
          "type": "address"
        },
        {
          "internalType": "address",
          "name": "contractAddress",
          "type": "address"
        },
        {
          "internalType": "bytes4[]",
          "name": "methods",
          "type": "bytes4[]"
        },
        {
          "internalType": "string",
          "name": "guardMetadataCID",
          "type": "string"
        }
      ],
      "name": "deleteAllowedInteractions",
      "outputs": [],
      "stateMutability": "nonpayable",
      "type": "function"
    },
    {
      "inputs": [
        {
          "internalType": "address",
          "name": "manager",
          "type": "address"
        },
        {
          "internalType": "address",
          "name": "safe",
          "type": "address"
        },
        {
          "components": [
            {
              "components": [
                {
                  "internalType": "address payable",
                  "name": "to",
                  "type": "address"
                },
                {
                  "internalType": "uint256",
                  "name": "value",
                  "type": "uint256"
                },
                {
                  "internalType": "bytes",
                  "name": "data",
                  "type": "bytes"
                }
              ],
              "internalType": "struct SafeProtocolAction[]",
              "name": "actions",
              "type": "tuple[]"
            },
            {
              "internalType": "uint256",
              "name": "nonce",
              "type": "uint256"
            },
            {
              "internalType": "bytes32",
              "name": "metadataHash",
              "type": "bytes32"
            }
          ],
          "internalType": "struct SafeTransaction",
          "name": "safetx",
          "type": "tuple"
        },
        {
          "internalType": "bytes",
          "name": "proofs",
          "type": "bytes"
        }
      ],
      "name": "executeFromPlugin",
      "outputs": [],
      "stateMutability": "nonpayable",
      "type": "function"
    },
    {
      "inputs": [],
      "name": "metadataHash",
      "outputs": [
        {
          "internalType": "bytes32",
          "name": "",
          "type": "bytes32"
        }
      ],
      "stateMutability": "view",
      "type": "function"
    },
    {
      "inputs": [],
      "name": "metadataProvider",
      "outputs": [
        {
          "internalType": "uint256",
          "name": "providerType",
          "type": "uint256"
        },
        {
          "internalType": "bytes",
          "name": "location",
          "type": "bytes"
        }
      ],
      "stateMutability": "view",
      "type": "function"
    },
    {
      "inputs": [],
      "name": "name",
      "outputs": [
        {
          "internalType": "string",
          "name": "",
          "type": "string"
        }
      ],
      "stateMutability": "view",
      "type": "function"
    },
    {
      "inputs": [],
      "name": "requiresRootAccess",
      "outputs": [
        {
          "internalType": "bool",
          "name": "",
          "type": "bool"
        }
      ],
      "stateMutability": "view",
      "type": "function"
    },
    {
      "inputs": [
        {
          "internalType": "address",
          "name": "safeAddress",
          "type": "address"
        },
        {
          "internalType": "address",
          "name": "contractAddress",
          "type": "address"
        },
        {
          "internalType": "bytes4[]",
          "name": "methods",
          "type": "bytes4[]"
        },
        {
          "components": [
            {
              "internalType": "enum ClaimType",
              "name": "claimType",
              "type": "uint8"
            },
            {
              "internalType": "bytes16",
              "name": "groupId",
              "type": "bytes16"
            },
            {
              "internalType": "bytes16",
              "name": "groupTimestamp",
              "type": "bytes16"
            },
            {
              "internalType": "uint256",
              "name": "value",
              "type": "uint256"
            },
            {
              "internalType": "bool",
              "name": "isOptional",
              "type": "bool"
            },
            {
              "internalType": "bool",
              "name": "isSelectableByUser",
              "type": "bool"
            },
            {
              "internalType": "bytes",
              "name": "extraData",
              "type": "bytes"
            }
          ],
          "internalType": "struct ClaimRequest[]",
          "name": "_claims",
          "type": "tuple[]"
        },
        {
          "internalType": "uint256",
          "name": "_timesPerAddress",
          "type": "uint256"
        },
        {
          "internalType": "string",
          "name": "guardMetadataCID",
          "type": "string"
        }
      ],
      "name": "setAllowedInteractions",
      "outputs": [],
      "stateMutability": "nonpayable",
      "type": "function"
    },
    {
      "inputs": [
        {
          "internalType": "bytes4",
          "name": "interfaceId",
          "type": "bytes4"
        }
      ],
      "name": "supportsInterface",
      "outputs": [
        {
          "internalType": "bool",
          "name": "",
          "type": "bool"
        }
      ],
      "stateMutability": "view",
      "type": "function"
    },
    {
      "inputs": [
        {
          "internalType": "bytes",
          "name": "sismoConnectResponseProofs",
          "type": "bytes"
        },
        {
          "internalType": "address",
          "name": "relayFor",
          "type": "address"
        },
        {
          "components": [
            {
              "internalType": "enum ClaimType",
              "name": "claimType",
              "type": "uint8"
            },
            {
              "internalType": "bytes16",
              "name": "groupId",
              "type": "bytes16"
            },
            {
              "internalType": "bytes16",
              "name": "groupTimestamp",
              "type": "bytes16"
            },
            {
              "internalType": "uint256",
              "name": "value",
              "type": "uint256"
            },
            {
              "internalType": "bool",
              "name": "isOptional",
              "type": "bool"
            },
            {
              "internalType": "bool",
              "name": "isSelectableByUser",
              "type": "bool"
            },
            {
              "internalType": "bytes",
              "name": "extraData",
              "type": "bytes"
            }
          ],
          "internalType": "struct ClaimRequest[]",
          "name": "requestRequiredClaims",
          "type": "tuple[]"
        }
      ],
      "name": "verifySismoClaims",
      "outputs": [],
      "stateMutability": "view",
      "type": "function"
    },
    {
      "inputs": [],
      "name": "version",
      "outputs": [
        {
          "internalType": "string",
          "name": "",
          "type": "string"
        }
      ],
      "stateMutability": "view",
      "type": "function"
    }
  ],
  "transactionHash": "0x57a8b3f11b3aea1ad4f0dac037aa45a8268faac8845d46f15fa42e264b8901b3",
  "args": [
    "0xd9A163AD0c8d4086992216c17A530D293A9E6b4b",
    "0x2d31f5ac41cdeba21728cca8842ff2f7"
  ],
  "numDeployments": 2,
  "solcInputHash": "4f2d562d1c6db1345dc9c340ba454998",
  "bytecode": "0x6101a06040523480156200001257600080fd5b50604051620046c4380380620046c4833981016040819052620000359162000852565b620000408162000581565b6040518060a001604052806040518060400160405280600b81526020016a2a32b9ba1028363ab3b4b760a91b8152508152602001604051806040016040528060058152602001640312e302e360dc1b8152508152602001600015158152602001604051806020016040528060008152508152602001620000cb30620005ed60201b620009bb1760201c565b604051602001620000dd9190620008c3565b60408051601f19818403018152919052905280518190600090620001029082620009d5565b506020810151600190620001179082620009d5565b506040810151151560805262000139816200060b602090811b620009d117901c565b8051906020012060a081815250505060a0517f522c683f99251eea7f3b027592e92a5398e7582983be1f7c0f33715ce025740f62000182836200060b60201b620009d11760201c565b60405162000191919062000acf565b60405180910390a25080516001600160801b0319166101605260208082015151151561018052604080518082018252601981527f7369736d6f436f6e6e65637456657269666965722d76312e3200000000000000928101929092525163349f642f60e11b8152733cd5334eb64ebbd4003b72022cc25465f1bfcee69163693ec85e9162000222919060040162000acf565b602060405180830381865afa15801562000240573d6000803e3d6000fd5b505050506040513d601f19601f8201168201806040525081019062000266919062000ae4565b6001600160a01b031660c052604080518082018252601781527f61757468526571756573744275696c6465722d76312e310000000000000000006020820152905163349f642f60e11b8152733cd5334eb64ebbd4003b72022cc25465f1bfcee69163693ec85e91620002dc919060040162000acf565b602060405180830381865afa158015620002fa573d6000803e3d6000fd5b505050506040513d601f19601f8201168201806040525081019062000320919062000ae4565b6001600160a01b031660e052604080518082018252601881527f636c61696d526571756573744275696c6465722d76312e3100000000000000006020820152905163349f642f60e11b8152733cd5334eb64ebbd4003b72022cc25465f1bfcee69163693ec85e9162000396919060040162000acf565b602060405180830381865afa158015620003b4573d6000803e3d6000fd5b505050506040513d601f19601f82011682018060405250810190620003da919062000ae4565b6001600160a01b031661010052604080518082018252601581527f7369676e61747572654275696c6465722d76312e3100000000000000000000006020820152905163349f642f60e11b8152733cd5334eb64ebbd4003b72022cc25465f1bfcee69163693ec85e9162000451919060040162000acf565b602060405180830381865afa1580156200046f573d6000803e3d6000fd5b505050506040513d601f19601f8201168201806040525081019062000495919062000ae4565b6001600160a01b031661012052604080518082018252601381527f726571756573744275696c6465722d76312e31000000000000000000000000006020820152905163349f642f60e11b8152733cd5334eb64ebbd4003b72022cc25465f1bfcee69163693ec85e916200050c919060040162000acf565b602060405180830381865afa1580156200052a573d6000803e3d6000fd5b505050506040513d601f19601f8201168201806040525081019062000550919062000ae4565b6001600160a01b0390811661014052600280546001600160a01b03191694909116939093179092555062000c229050565b620005a8604080518082018252600080825282516020818101909452908152909182015290565b604080518082019091526001600160801b03198316815260208101620005e560408051602080820183526000918290528251908101909252815290565b905292915050565b6060620006056001600160a01b038316601462000676565b92915050565b6060600080836000015184602001518560400151866060015187608001516040516020016200063f95949392919062000b04565b60408051601f19818403018152908290526200066093929160200162000b6d565b6040516020818303038152906040529050919050565b606060006200068783600262000bc2565b6200069490600262000bdc565b6001600160401b03811115620006ae57620006ae62000930565b6040519080825280601f01601f191660200182016040528015620006d9576020820181803683370190505b509050600360fc1b81600081518110620006f757620006f762000bf2565b60200101906001600160f81b031916908160001a905350600f60fb1b8160018151811062000729576200072962000bf2565b60200101906001600160f81b031916908160001a90535060006200074f84600262000bc2565b6200075c90600162000bdc565b90505b6001811115620007de576f181899199a1a9b1b9c1cb0b131b232b360811b85600f166010811062000794576200079462000bf2565b1a60f81b828281518110620007ad57620007ad62000bf2565b60200101906001600160f81b031916908160001a90535060049490941c93620007d68162000c08565b90506200075f565b508315620008325760405162461bcd60e51b815260206004820181905260248201527f537472696e67733a20686578206c656e67746820696e73756666696369656e74604482015260640160405180910390fd5b9392505050565b6001600160a01b03811681146200084f57600080fd5b50565b600080604083850312156200086657600080fd5b8251620008738162000839565b60208401519092506001600160801b0319811681146200089257600080fd5b809150509250929050565b60005b83811015620008ba578181015183820152602001620008a0565b50506000910152565b7f68747470733a2f2f6e696a6f65312e6769746875622e696f2f536166652e506181527f796d61737465722f232f7a6b536166655061796d61737465722f0000000000006020820152600082516200092381603a8501602087016200089d565b91909101603a0192915050565b634e487b7160e01b600052604160045260246000fd5b600181811c908216806200095b57607f821691505b6020821081036200097c57634e487b7160e01b600052602260045260246000fd5b50919050565b601f821115620009d057600081815260208120601f850160051c81016020861015620009ab5750805b601f850160051c820191505b81811015620009cc57828155600101620009b7565b5050505b505050565b81516001600160401b03811115620009f157620009f162000930565b62000a098162000a02845462000946565b8462000982565b602080601f83116001811462000a41576000841562000a285750858301515b600019600386901b1c1916600185901b178555620009cc565b600085815260208120601f198616915b8281101562000a725788860151825594840194600190910190840162000a51565b508582101562000a915787850151600019600388901b60f8161c191681555b5050505050600190811b01905550565b6000815180845262000abb8160208601602086016200089d565b601f01601f19169290920160200192915050565b60208152600062000832602083018462000aa1565b60006020828403121562000af757600080fd5b8151620008328162000839565b60a08152600062000b1960a083018862000aa1565b828103602084015262000b2d818862000aa1565b90508515156040840152828103606084015262000b4b818662000aa1565b9050828103608084015262000b61818562000aa1565b98975050505050505050565b600060ff60f81b808660f81b168352808560f81b16600184015250825162000b9d8160028501602087016200089d565b91909101600201949350505050565b634e487b7160e01b600052601160045260246000fd5b808202811582820484141762000605576200060562000bac565b8082018082111562000605576200060562000bac565b634e487b7160e01b600052603260045260246000fd5b60008162000c1a5762000c1a62000bac565b506000190190565b60805160a05160c05160e0516101005161012051610140516101605161018051613a2662000c9e600039600081816101c701526107ba01526000818161021501526107990152600061168601526000610c0f0152600050506000610b6601526000610ceb01526000610255015260006101ee0152613a266000f3fe608060405234801561001057600080fd5b50600436106100f55760003560e01c8063943c590511610097578063c5a1d7f011610066578063c5a1d7f014610250578063c9512d9914610285578063d3d72d2a1461028d578063db040a3f146102c457600080fd5b8063943c5905146101af578063a183dc27146101c2578063be193d27146101e9578063c187bbc11461021057600080fd5b806346916301116100d3578063469163011461014c57806347a71f221461017f57806354fd4d501461019257806379502c551461019a57600080fd5b806301ffc9a7146100fa57806306fdde0314610122578063132a675914610137575b600080fd5b61010d610108366004611987565b6102d7565b60405190151581526020015b60405180910390f35b61012a61030e565b6040516101199190611a01565b61014a610145366004611bea565b61039c565b005b610167733cd5334eb64ebbd4003b72022cc25465f1bfcee681565b6040516001600160a01b039091168152602001610119565b61014a61018d366004611cab565b610609565b61012a610761565b6101a261076e565b6040516101199190611d39565b61014a6101bd366004611dd7565b6107e3565b61010d7f000000000000000000000000000000000000000000000000000000000000000081565b61010d7f000000000000000000000000000000000000000000000000000000000000000081565b6102377f000000000000000000000000000000000000000000000000000000000000000081565b6040516001600160801b03199091168152602001610119565b6102777f000000000000000000000000000000000000000000000000000000000000000081565b604051908152602001610119565b610277600281565b6102b6604080513060208201526003916060910160405160208183030381529060405290509091565b604051610119929190611f4d565b61014a6102d2366004611f66565b6108db565b60006001600160e01b03198216631fe741af60e11b148061030857506001600160e01b031982166301ffc9a760e01b145b92915050565b6000805461031b90611ff6565b80601f016020809104026020016040519081016040528092919081815260200182805461034790611ff6565b80156103945780601f1061036957610100808354040283529160200191610394565b820191906000526020600020905b81548152906001019060200180831161037757829003601f168201915b505050505081565b6001600160a01b038816331415806103cd57506103b7610a38565b6001600160a01b0316886001600160a01b031614155b156103eb576040516329ea737160e21b815260040160405180910390fd5b6001600160a01b038816600090815260036020526040902061040c90610a59565b60000361047c576002546040516370da16cf60e11b81526001600160a01b039091169063e1b42d9e90610445908b908590600401612030565b600060405180830381600087803b15801561045f57600080fd5b505af1158015610473573d6000803e3d6000fd5b505050506104e1565b600254604051638fe4b44560e01b81526001600160a01b0390911690638fe4b445906104ae908b908590600401612030565b600060405180830381600087803b1580156104c857600080fd5b505af11580156104dc573d6000803e3d6000fd5b505050505b6001600160a01b03881660009081526003602052604090206105039088610a63565b50604080516001600160a01b038a8116602080840191909152908a16828401528251808303840181526060909201835281519181019190912060008181526004909252918120905b8781101561059a5761059189898381811061056857610568612054565b905060200201602081019061057d9190611987565b60018401906001600160e01b031916610a7f565b5060010161054b565b5060005b858110156105f757818787838181106105b9576105b9612054565b90506020028101906105cb919061206a565b8154600181018355600092835260209092209091600502016105ed828261220e565b505060010161059e565b50600401929092555050505050505050565b6001600160a01b0385163314610632576040516329ea737160e21b815260040160405180910390fd5b600254604051638fe4b44560e01b81526001600160a01b0390911690638fe4b445906106649088908590600401612030565b600060405180830381600087803b15801561067e57600080fd5b505af1158015610692573d6000803e3d6000fd5b5050506001600160a01b03861660009081526003602052604090206106b8915085610a8b565b6106c157600080fd5b604080516001600160a01b03878116602080840191909152908716828401528251808303840181526060909201835281519181019190912060008181526004909252918120905b848110156107575761074e86868381811061072557610725612054565b905060200201602081019061073a9190611987565b60018401906001600160e01b031916610aad565b50600101610708565b5050505050505050565b6001805461031b90611ff6565b610794604080518082018252600080825282516020818101909452908152909182015290565b6107de7f00000000000000000000000000000000000000000000000000000000000000007f0000000000000000000000000000000000000000000000000000000000000000610ab9565b905090565b604080516001808252818301909252600091816020015b6040805160c081018252600080825260208083018290529282018190526060808301829052608083019190915260a082015282526000199092019101816107fa57905050905061084a6000610b27565b8160008151811061085d5761085d612054565b602002602001018190525060006108ac8583856108a78860405160200161089391906001600160a01b0391909116815260200190565b604051602081830303815290604052610be8565b610c91565b90508251816080015151036108d457604051635bf4708f60e11b815260040160405180910390fd5b5050505050565b6108e433610d92565b61092e5760405162461bcd60e51b81526020600482015260166024820152756f6e6c7947656c61746f52656c61794552433237373160501b60448201526064015b60405180910390fd5b6000610938610a38565b8585610944868061231c565b600081811061095557610955612054565b90506020028101906109679190612365565b6109759060408101906120ba565b6040516020016109899594939291906123a4565b6040516020818303038152906040528051906020012060001c90506109b085858585610e42565b6108d48585836112a1565b60606103086001600160a01b038316601461138a565b606060008083600001518460200151856040015186606001518760800151604051602001610a039594939291906123e4565b60408051601f1981840301815290829052610a22939291602001612445565b6040516020818303038152906040529050919050565b6000610a4333610d92565b610a4c57503390565b5060131936013560601c90565b6000610308825490565b6000610a78836001600160a01b038416611525565b9392505050565b6000610a788383611525565b6001600160a01b03811660009081526001830160205260408120541515610a78565b6000610a788383611574565b610adf604080518082018252600080825282516020818101909452908152909182015290565b6040518060400160405280846001600160801b0319168152602001610b1e84604080516020808201835260009091528151908101909152901515815290565b90529392505050565b6040805160c0810182526000808252602082018190528183018190526060808301829052608083019190915260a08201529051633a0ba6ff60e01b81527f00000000000000000000000000000000000000000000000000000000000000006001600160a01b031690633a0ba6ff90610ba3908590600401612496565b600060405180830381865afa158015610bc0573d6000803e3d6000fd5b505050506040513d6000823e601f3d908101601f19168201604052610308919081019061259e565b604080516060808201835280825260006020830152818301529051631a0d7ccb60e21b81527f00000000000000000000000000000000000000000000000000000000000000006001600160a01b031690636835f32c90610c4c908590600401611a01565b600060405180830381865afa158015610c69573d6000803e3d6000fd5b505050506040513d6000823e601f3d908101601f191682016040526103089190810190612656565b6040805160c0810182526000808252602082018190529181019190915260608082018190526080820181905260a0820152600085806020019051810190610cd891906129f5565b90506000610ce7868686611667565b90507f00000000000000000000000000000000000000000000000000000000000000006001600160a01b03166312b037ff8383610d2261076e565b6040518463ffffffff1660e01b8152600401610d4093929190612d48565b600060405180830381865afa158015610d5d573d6000803e3d6000fd5b505050506040513d6000823e601f3d908101601f19168201604052610d85919081019061314e565b925050505b949350505050565b6000466101441480610da5575046610118145b15610df6576001600160a01b0382167322dcc39b2ac376862183dd35a1664798dafc7da6148061030857506001600160a01b03821673ba4082f4961c8fb76231995c967cd9aa40f321b51492915050565b6001600160a01b03821673b539068872230f20456cf38ec52ef2f91af4ae49148061030857506001600160a01b038216738598806401a63ddf52473f1b3c55bc9e33e2d73b1492915050565b6000610e4e838061231c565b9150506001811115610e735760405163d3c11fcf60e01b815260040160405180910390fd5b6000610e7f848061231c565b6000818110610e9057610e90612054565b9050602002810190610ea29190612365565b610eab9061322e565b90506000610eb9858061231c565b6000818110610eca57610eca612054565b9050602002810190610edc9190612365565b610eea9060408101906120ba565b610ef991600491600091613284565b610f02916132ae565b82516001600160a01b03881660009081526003602052604081206001600160e01b031993909316935091610f3591610a8b565b905080610f5857604051600162d9e30d60e01b0319815260040160405180910390fd5b8251604080516001600160a01b038a811660208084019190915293168183015281518082038301815260609091018252805190830120600081815260049093529120610fa76001820185611704565b15610fd157604051635dd5516360e11b81526001600160e01b031985166004820152602401610925565b8054156111545761115487610fe4610a38565b83546040805160208084028201810190925282815291869160009084015b8282101561114b576000848152602090206040805160e08101909152600584029091018054829060ff16600481111561103d5761103d61208a565b600481111561104e5761104e61208a565b8152815461010090819004608090811b6001600160801b031990811660208501526001850154821b16604084015260028401546060840152600384015460ff8082161515928501929092529190910416151560a082015260048201805460c0909201916110ba90611ff6565b80601f01602080910402602001604051908101604052809291908181526020018280546110e690611ff6565b80156111335780601f1061110857610100808354040283529160200191611133565b820191906000526020600020905b81548152906001019060200180831161111657829003601f168201915b50505050508152505081526020019060010190611002565b505050506107e3565b84516040516111799186916020019182526001600160a01b0316602082015260400190565b604051602081830303815290604052805190602001209150806003016000838152602001908152602001600020548160040154116111b657600080fd5b600082815260038201602052604081208054916111d2836132f4565b9091555050604051630f99191560e01b81526001600160a01b038b1690630f99191590611205908c908c9060040161330d565b6000604051808303816000875af192505050801561124557506040513d6000823e601f3d908101601f191682016040526112429190810190613458565b60015b611294573d808015611273576040519150601f19603f3d011682016040523d82523d6000602084013e611278565b606091505b508060405163175f91fb60e21b81526004016109259190611a01565b5050505050505050505050565b60006112c436604719013560601c36605b19013560601c3660331901358561171c565b604051630f99191560e01b81529091506001600160a01b03851690630f991915906112f59086908590600401613508565b6000604051808303816000875af192505050801561133557506040513d6000823e601f3d908101601f191682016040526113329190810190613458565b60015b6108d4573d808015611363576040519150601f19603f3d011682016040523d82523d6000602084013e611368565b606091505b50806040516349620fc960e01b81526004016109259190611a01565b50505050565b606060006113998360026135b8565b6113a49060026135cf565b6001600160401b038111156113bb576113bb611a77565b6040519080825280601f01601f1916602001820160405280156113e5576020820181803683370190505b509050600360fc1b8160008151811061140057611400612054565b60200101906001600160f81b031916908160001a905350600f60fb1b8160018151811061142f5761142f612054565b60200101906001600160f81b031916908160001a90535060006114538460026135b8565b61145e9060016135cf565b90505b60018111156114d6576f181899199a1a9b1b9c1cb0b131b232b360811b85600f166010811061149257611492612054565b1a60f81b8282815181106114a8576114a8612054565b60200101906001600160f81b031916908160001a90535060049490941c936114cf816135e2565b9050611461565b508315610a785760405162461bcd60e51b815260206004820181905260248201527f537472696e67733a20686578206c656e67746820696e73756666696369656e746044820152606401610925565b600081815260018301602052604081205461156c57508154600181810184556000848152602080822090930184905584548482528286019093526040902091909155610308565b506000610308565b6000818152600183016020526040812054801561165d5760006115986001836135f9565b85549091506000906115ac906001906135f9565b90508181146116115760008660000182815481106115cc576115cc612054565b90600052602060002001549050808760000184815481106115ef576115ef612054565b6000918252602080832090910192909255918252600188019052604090208390555b85548690806116225761162261360c565b600190038181906000526020600020016000905590558560010160008681526020019081526020016000206000905560019350505050610308565b6000915050610308565b61166f611937565b604051634c92019b60e11b81526001600160a01b037f000000000000000000000000000000000000000000000000000000000000000016906399240336906116bf908790879087906004016136cb565b600060405180830381865afa1580156116dc573d6000803e3d6000fd5b505050506040513d6000823e601f3d908101601f19168201604052610d8a91908101906138b8565b60008181526001830160205260408120541515610a78565b60408051606080820183528152600060208201819052818301819052825160018082528185019094529192909190816020015b6040805160608082018352600080835260208301529181019190915281526020019060019003908161174f5790505090506001600160a01b03861673eeeeeeeeeeeeeeeeeeeeeeeeeeeeeeeeeeeeeeee14806117b257506001600160a01b038616155b1561184a5784816000815181106117cb576117cb612054565b6020026020010151600001906001600160a01b031690816001600160a01b031681525050838160008151811061180357611803612054565b60200260200101516020018181525050604051806020016040528060008152508160008151811061183657611836612054565b60200260200101516040018190525061190e565b858160008151811061185e5761185e612054565b6020026020010151600001906001600160a01b031690816001600160a01b03168152505060008160008151811061189757611897612054565b60209081029190910181015101526040516001600160a01b03861660248201526044810185905260640160408051601f198184030181529190526020810180516001600160e01b031663a9059cbb60e01b179052815182906000906118fe576118fe612054565b6020026020010151604001819052505b60408051606081018252918252602082018490526000908201529050949350505050565b905290565b604051806080016040528060006001600160801b03191681526020016060815260200160608152602001611932604051806060016040528060608152602001600015158152602001606081525090565b60006020828403121561199957600080fd5b81356001600160e01b031981168114610a7857600080fd5b60005b838110156119cc5781810151838201526020016119b4565b50506000910152565b600081518084526119ed8160208601602086016119b1565b601f01601f19169290920160200192915050565b602081526000610a7860208301846119d5565b6001600160a01b0381168114611a2957600080fd5b50565b60008083601f840112611a3e57600080fd5b5081356001600160401b03811115611a5557600080fd5b6020830191508360208260051b8501011115611a7057600080fd5b9250929050565b634e487b7160e01b600052604160045260246000fd5b60405160e081016001600160401b0381118282101715611aaf57611aaf611a77565b60405290565b60405160c081016001600160401b0381118282101715611aaf57611aaf611a77565b604051606081016001600160401b0381118282101715611aaf57611aaf611a77565b60405160a081016001600160401b0381118282101715611aaf57611aaf611a77565b604051608081016001600160401b0381118282101715611aaf57611aaf611a77565b604051601f8201601f191681016001600160401b0381118282101715611b6557611b65611a77565b604052919050565b60006001600160401b03821115611b8657611b86611a77565b50601f01601f191660200190565b600082601f830112611ba557600080fd5b8135611bb8611bb382611b6d565b611b3d565b818152846020838601011115611bcd57600080fd5b816020850160208301376000918101602001919091529392505050565b60008060008060008060008060c0898b031215611c0657600080fd5b8835611c1181611a14565b97506020890135611c2181611a14565b965060408901356001600160401b0380821115611c3d57600080fd5b611c498c838d01611a2c565b909850965060608b0135915080821115611c6257600080fd5b611c6e8c838d01611a2c565b909650945060808b0135935060a08b0135915080821115611c8e57600080fd5b50611c9b8b828c01611b94565b9150509295985092959890939650565b600080600080600060808688031215611cc357600080fd5b8535611cce81611a14565b94506020860135611cde81611a14565b935060408601356001600160401b0380821115611cfa57600080fd5b611d0689838a01611a2c565b90955093506060880135915080821115611d1f57600080fd5b50611d2c88828901611b94565b9150509295509295909350565b81516001600160801b03191681526020808301515115159082015260408101610308565b60006001600160401b03821115611d7657611d76611a77565b5060051b60200190565b60058110611a2957600080fd5b8035611d9881611d80565b919050565b6001600160801b031981168114611a2957600080fd5b8035611d9881611d9d565b8015158114611a2957600080fd5b8035611d9881611dbe565b600080600060608486031215611dec57600080fd5b83356001600160401b0380821115611e0357600080fd5b611e0f87838801611b94565b94506020915081860135611e2281611a14565b9350604086013581811115611e3657600080fd5b8601601f81018813611e4757600080fd5b8035611e55611bb382611d5d565b81815260059190911b8201840190848101908a831115611e7457600080fd5b8584015b83811015611f3c57803586811115611e8f57600080fd5b850160e0818e03601f19011215611ea557600080fd5b611ead611a8d565b611eb8898301611d8d565b8152611ec660408301611db3565b89820152611ed660608301611db3565b604082015260808201356060820152611ef160a08301611dcc565b6080820152611f0260c08301611dcc565b60a082015260e082013588811115611f1a5760008081fd5b611f288f8b83860101611b94565b60c083015250845250918601918601611e78565b508096505050505050509250925092565b828152604060208201526000610d8a60408301846119d5565b60008060008060808587031215611f7c57600080fd5b8435611f8781611a14565b93506020850135611f9781611a14565b925060408501356001600160401b0380821115611fb357600080fd5b9086019060608289031215611fc757600080fd5b90925060608601359080821115611fdd57600080fd5b50611fea87828801611b94565b91505092959194509250565b600181811c9082168061200a57607f821691505b60208210810361202a57634e487b7160e01b600052602260045260246000fd5b50919050565b6001600160a01b0383168152604060208201819052600090610d8a908301846119d5565b634e487b7160e01b600052603260045260246000fd5b6000823560de1983360301811261208057600080fd5b9190910192915050565b634e487b7160e01b600052602160045260246000fd5b6000813561030881611d9d565b6000813561030881611dbe565b6000808335601e198436030181126120d157600080fd5b8301803591506001600160401b038211156120eb57600080fd5b602001915036819003821315611a7057600080fd5b601f82111561214a57600081815260208120601f850160051c810160208610156121275750805b601f850160051c820191505b8181101561214657828155600101612133565b5050505b505050565b6001600160401b0383111561216657612166611a77565b61217a836121748354611ff6565b83612100565b6000601f8411600181146121ae57600085156121965750838201355b600019600387901b1c1916600186901b1783556108d4565b600083815260209020601f19861690835b828110156121df57868501358255602094850194600190920191016121bf565b50868210156121fc5760001960f88860031b161c19848701351681555b505060018560011b0183555050505050565b813561221981611d80565b600581106122295761222961208a565b60ff1982541660ff821681178355505061227c612248602084016120a0565b825470ffffffffffffffffffffffffffffffff00191660789190911c70ffffffffffffffffffffffffffffffff0016178255565b6122a661228b604084016120a0565b600183018160801c6001600160801b03198254161781555050565b60608201356002820155600381016122d76122c3608085016120ad565b825490151560ff1660ff1991909116178255565b6123006122e660a085016120ad565b82805461ff00191691151560081b61ff0016919091179055565b5061230e60c08301836120ba565b61138481836004860161214f565b6000808335601e1984360301811261233357600080fd5b8301803591506001600160401b0382111561234d57600080fd5b6020019150600581901b3603821315611a7057600080fd5b60008235605e1983360301811261208057600080fd5b81835281816020850137506000828201602090810191909152601f909101601f19169091010190565b6001600160a01b0386811682528581166020830152841660408201526080606082018190526000906123d9908301848661237b565b979650505050505050565b60a0815260006123f760a08301886119d5565b828103602084015261240981886119d5565b90508515156040840152828103606084015261242581866119d5565b9050828103608084015261243981856119d5565b98975050505050505050565b600060ff60f81b808660f81b168352808560f81b1660018401525082516124738160028501602087016119b1565b91909101600201949350505050565b600681106124925761249261208a565b9052565b602081016103088284612482565b805160068110611d9857600080fd5b8051611d9881611dbe565b600082601f8301126124cf57600080fd5b81516124dd611bb382611b6d565b8181528460208386010111156124f257600080fd5b610d8a8260208301602087016119b1565b600060c0828403121561251557600080fd5b61251d611ab5565b9050612528826124a4565b815260208201516020820152604082015161254281611dbe565b6040820152606082015161255581611dbe565b6060820152608082015161256881611dbe565b608082015260a08201516001600160401b0381111561258657600080fd5b612592848285016124be565b60a08301525092915050565b6000602082840312156125b057600080fd5b81516001600160401b038111156125c657600080fd5b610d8a84828501612503565b6000606082840312156125e457600080fd5b6125ec611ad7565b905081516001600160401b038082111561260557600080fd5b612611858386016124be565b83526020840151915061262382611dbe565b816020840152604084015191508082111561263d57600080fd5b5061264a848285016124be565b60408301525092915050565b60006020828403121561266857600080fd5b81516001600160401b0381111561267e57600080fd5b610d8a848285016125d2565b8051611d9881611d9d565b600082601f8301126126a657600080fd5b815160206126b6611bb383611d5d565b82815260059290921b840181019181810190868411156126d557600080fd5b8286015b848110156127935780516001600160401b03808211156126f95760008081fd5b9088019060a0828b03601f19018113156127135760008081fd5b61271b611af9565b6127268885016124a4565b815260408085015161273781611dbe565b828a015260608581015161274a81611dbe565b80838501525060809150818601518184015250828501519250838311156127715760008081fd5b61277f8d8a858801016124be565b9082015286525050509183019183016126d9565b509695505050505050565b8051611d9881611d80565b600082601f8301126127ba57600080fd5b815160206127ca611bb383611d5d565b82815260059290921b840181019181810190868411156127e957600080fd5b8286015b848110156127935780516001600160401b038082111561280d5760008081fd5b9088019060c0828b03601f19018113156128275760008081fd5b61282f611ab5565b8784015161283c81611d80565b815260408481015161284d81611d9d565b828a015260608581015161286081611d9d565b808385015250608091506128758287016124b3565b9083015260a0858101518284015292850151928484111561289857600091508182fd5b6128a68e8b868901016124be565b908301525086525050509183019183016127ed565b600082601f8301126128cc57600080fd5b815160206128dc611bb383611d5d565b82815260059290921b840181019181810190868411156128fb57600080fd5b8286015b848110156127935780516001600160401b038082111561291f5760008081fd5b9088019060a0828b03601f19018113156129395760008081fd5b612941611af9565b87840151838111156129535760008081fd5b6129618d8a83880101612695565b825250604080850151848111156129785760008081fd5b6129868e8b838901016127a9565b8a84015250606080860151828401526080915081860151858111156129ab5760008081fd5b6129b98f8c838a01016124be565b828501525050828501519250838311156129d35760008081fd5b6129e18d8a858801016124be565b9082015286525050509183019183016128ff565b600060208284031215612a0757600080fd5b81516001600160401b0380821115612a1e57600080fd5b9083019060a08286031215612a3257600080fd5b612a3a611af9565b8251612a4581611d9d565b81526020830151612a5581611d9d565b602082015260408381015190820152606083015182811115612a7657600080fd5b612a82878286016124be565b606083015250608083015182811115612a9a57600080fd5b612aa6878286016128bb565b60808301525095945050505050565b600581106124925761249261208a565b600081518084526020808501808196508360051b8101915082860160005b85811015612b62578284038952815160c0612aff868351612ab5565b818701516001600160801b031990811687890152604080840151909116908701526060808301511515908701526080808301519087015260a091820151918601819052612b4e818701836119d5565b9a87019a9550505090840190600101612ae3565b5091979650505050505050565b600081518084526020808501808196508360051b8101915082860160005b85811015612b62578284038952815160e0612ba9868351612ab5565b818701516001600160801b031990811687890152604080840151909116908701526060808301519087015260808083015115159087015260a08083015115159087015260c091820151918601819052612c04818701836119d5565b9a87019a9550505090840190600101612b8d565b6000815160608452612c2d60608501826119d5565b905060208301511515602085015260408301518482036040860152612c5282826119d5565b95945050505050565b600060808084016001600160801b03198451168552602080850151838288015282815180855260a094508489019150848160051b8a0101848401935060005b82811015612d0f57609f198b8303018452845160c0612cba848351612482565b81880151848901526040808301511515908501526060808301511515908501528982015115158a8501529088015188840182905290612cfb818501836119d5565b968801969588019593505050600101612c9a565b506040890151965089810360408b0152612d298188612b6f565b965050505050505060608301518482036060860152612c528282612c18565b600060808083526001600160801b0319808751168285015260208088015182811660a087015250604088015191508160c08601526060880151915060a060e0860152612d986101208601836119d5565b88840151868203607f1901610100880152805180835291935082019082840190600581901b8501840160005b82811015612ed157601f198783030184528451805160a0808552815190850181905260c0600582901b86018101928a01919086019060005b81811015612e665760bf198886030183528351612e1a868251612482565b8c81015115158d870152604081015115156040870152606081015160608701528e810151905060a08f870152612e5360a08701826119d5565b955050928b0192918b0191600101612dfc565b505050508782015184820389860152612e7f8282612ac5565b9150506040820151604085015260608201518482036060860152612ea382826119d5565b9150508982015191508381038a850152612ebd81836119d5565b968801969588019593505050600101612dc4565b50888103858a0152612ee3818c612c5b565b8a516001600160801b03191660408b015260208b015151151560608b01529750610d8a9650505050505050565b600082601f830112612f2157600080fd5b81516020612f31611bb383611d5d565b82815260059290921b84018101918181019086841115612f5057600080fd5b8286015b848110156127935780516001600160401b0380821115612f745760008081fd5b9088019060a0828b03601f1901811315612f8e5760008081fd5b612f96611af9565b612fa18885016124a4565b8152604080850151612fb281611dbe565b808a8401525060608086015182840152608091508186015185811115612fd85760008081fd5b612fe68f8c838a01016124be565b828501525050828501519250838311156130005760008081fd5b61300e8d8a858801016124be565b908201528652505050918301918301612f54565b600082601f83011261303357600080fd5b81516020613043611bb383611d5d565b82815260059290921b8401810191818101908684111561306257600080fd5b8286015b848110156127935780516001600160401b03808211156130865760008081fd5b9088019060e0828b03601f19018113156130a05760008081fd5b6130a8611a8d565b6130b388850161279e565b815260406130c281860161268a565b8983015260606130d381870161268a565b828401526080915081860151818401525060a080860151858111156130f85760008081fd5b6131068f8c838a01016124be565b838501525060c091508186015181840152508285015192508383111561312c5760008081fd5b61313a8d8a858801016124be565b908201528652505050918301918301613066565b60006020828403121561316057600080fd5b81516001600160401b038082111561317757600080fd5b9083019060c0828603121561318b57600080fd5b613193611ab5565b61319c8361268a565b81526131aa6020840161268a565b6020820152604083015160408201526060830151828111156131cb57600080fd5b6131d787828601612f10565b6060830152506080830151828111156131ef57600080fd5b6131fb87828601613022565b60808301525060a08301518281111561321357600080fd5b61321f878286016124be565b60a08301525095945050505050565b60006060823603121561324057600080fd5b613248611ad7565b823561325381611a14565b81526020838101359082015260408301356001600160401b0381111561327857600080fd5b61264a36828601611b94565b6000808585111561329457600080fd5b838611156132a157600080fd5b5050820193919092039150565b6001600160e01b031981358181169160048510156132d65780818660040360031b1b83161692505b505092915050565b634e487b7160e01b600052601160045260246000fd5b600060018201613306576133066132de565b5060010190565b6001600160a01b038381168252604060208084018290526000929060a08501863536889003601e1901811261334157600080fd5b870180358382016001600160401b038083111561335d57600080fd5b8260051b80360383131561337057600080fd5b60608b8a01819052958490528a0160c0908101956000918c0136879003607e19015b86841015613431578d890360bf1901825285358181126133b157600080fd5b88018a8101356133c081611a14565b8c168a52808d01358b8b01528381013536829003603e190181126133e357600080fd5b018c8101908b0135868111156133f857600080fd5b80360382131561340757600080fd5b848e8c0152613419858c01828461237b565b9a505050948901946001939093019290890190613392565b5050878d0135818d0152505050505050838701356080870152809450505050509392505050565b6000602080838503121561346b57600080fd5b82516001600160401b038082111561348257600080fd5b818501915085601f83011261349657600080fd5b81516134a4611bb382611d5d565b81815260059190911b830184019084810190888311156134c357600080fd5b8585015b838110156134fb578051858111156134df5760008081fd5b6134ed8b89838a01016124be565b8452509186019186016134c7565b5098975050505050505050565b6000604060018060a01b0380861684526020828186015260a0850186516060808689015282825180855260c08a01915060c08160051b8b01019450858401935060005b81811015613594578a860360bf1901835284518051891687528781015188880152890151898701859052613581858801826119d5565b965050938601939186019160010161354b565b50505083890151818901525050838701516080870152809450505050509392505050565b8082028115828204841417610308576103086132de565b80820180821115610308576103086132de565b6000816135f1576135f16132de565b506000190190565b81810381811115610308576103086132de565b634e487b7160e01b600052603160045260246000fd5b600081518084526020808501808196508360051b8101915082860160005b85811015612b62578284038952815160e061365c868351612ab5565b818701516001600160801b031990811687890152604080840151909116908701526060808301519087015260808083015115159087015260a08083015115159087015260c0918201519186018190526136b7818701836119d5565b9a87019a9550505090840190600101613640565b60006060808301818452808751808352608092508286019150828160051b8701016020808b0160005b8481101561376857607f198a8503018652815160c0613714868351612482565b81850151868601526040808301511515908701528982015115158a8701528882015115158987015260a091820151918601819052613754818701836119d5565b9785019795505050908201906001016136f4565b50508782039088015261377b818a613622565b94505050505082810360408401526137938185612c18565b9695505050505050565b600082601f8301126137ae57600080fd5b815160206137be611bb383611d5d565b82815260059290921b840181019181810190868411156137dd57600080fd5b8286015b848110156127935780516001600160401b03808211156138015760008081fd5b9088019060e0828b03601f190181131561381b5760008081fd5b613823611a8d565b61382e88850161279e565b8152604061383d81860161268a565b89830152606061384e81870161268a565b828401526080915081860151818401525060a061386c8187016124b3565b8284015260c0915061387f8287016124b3565b908301529184015191838311156138965760008081fd5b6138a48d8a858801016124be565b9082015286525050509183019183016137e1565b600060208083850312156138cb57600080fd5b82516001600160401b03808211156138e257600080fd5b90840190608082870312156138f657600080fd5b6138fe611b1b565b825161390981611d9d565b8152828401518281111561391c57600080fd5b8301601f8101881361392d57600080fd5b805161393b611bb382611d5d565b81815260059190911b8201860190868101908a83111561395a57600080fd5b8784015b83811015613992578051878111156139765760008081fd5b6139848d8b83890101612503565b84525091880191880161395e565b5080888601525050505060408301519350818411156139b057600080fd5b6139bc8785850161379d565b604082015260608301519350818411156139d557600080fd5b6139e1878585016125d2565b6060820152969550505050505056fea2646970667358221220c49508a0721a9a5fb83820c6794892005584f767dd28741c75fc7450a9a16ec964736f6c63430008120033",
  "devdoc": {
    "kind": "dev",
    "methods": {
      "metadataProvider()": {
        "returns": {
          "location": "bytes",
          "providerType": "uint256 Type of metadata provider"
        }
      },
      "supportsInterface(bytes4)": {
        "details": "Returns true if this contract implements the interface defined by `interfaceId`. See the corresponding https://eips.ethereum.org/EIPS/eip-165#how-interfaces-are-identified[EIP section] to learn more about how these ids are created. This function call must use less than 30 000 gas."
      }
    },
    "version": 1
  },
  "userdoc": {
    "kind": "user",
    "methods": {
      "metadataProvider()": {
        "notice": "A function that returns information about the type of metadata provider and its location.         For more information on metadata provider, refer to https://github.com/safe-global/safe-core-protocol-specs/."
      },
      "name()": {
        "notice": "A funtion that returns name of the plugin"
      },
      "requiresRootAccess()": {
        "notice": "A function that indicates if the plugin requires root access to a Safe."
      },
      "version()": {
        "notice": "A function that returns version of the plugin"
      }
    },
    "version": 1
  },
  "storageLayout": {
    "storage": [
      {
        "astId": 9663,
        "contract": "contracts/SafePaymasterPlugin.sol:SafePaymasterPlugin",
        "label": "name",
        "offset": 0,
        "slot": "0",
        "type": "t_string_storage"
      },
      {
        "astId": 9665,
        "contract": "contracts/SafePaymasterPlugin.sol:SafePaymasterPlugin",
        "label": "version",
        "offset": 0,
        "slot": "1",
        "type": "t_string_storage"
      },
      {
        "astId": 9888,
        "contract": "contracts/SafePaymasterPlugin.sol:SafePaymasterPlugin",
        "label": "indexer",
        "offset": 0,
        "slot": "2",
        "type": "t_contract(Indexer)10830"
      },
      {
        "astId": 9946,
        "contract": "contracts/SafePaymasterPlugin.sol:SafePaymasterPlugin",
        "label": "safeWhitelistedContracts",
        "offset": 0,
        "slot": "3",
        "type": "t_mapping(t_address,t_struct(AddressSet)2991_storage)"
      },
      {
        "astId": 9951,
        "contract": "contracts/SafePaymasterPlugin.sol:SafePaymasterPlugin",
        "label": "safeGuard",
        "offset": 0,
        "slot": "4",
        "type": "t_mapping(t_bytes32,t_struct(GuardInfo)9941_storage)"
      }
    ],
    "types": {
      "t_address": {
        "encoding": "inplace",
        "label": "address",
        "numberOfBytes": "20"
      },
      "t_array(t_bytes32)dyn_storage": {
        "base": "t_bytes32",
        "encoding": "dynamic_array",
        "label": "bytes32[]",
        "numberOfBytes": "32"
      },
      "t_array(t_struct(ClaimRequest)8766_storage)dyn_storage": {
        "base": "t_struct(ClaimRequest)8766_storage",
        "encoding": "dynamic_array",
        "label": "struct ClaimRequest[]",
        "numberOfBytes": "32"
      },
      "t_bool": {
        "encoding": "inplace",
        "label": "bool",
        "numberOfBytes": "1"
      },
      "t_bytes16": {
        "encoding": "inplace",
        "label": "bytes16",
        "numberOfBytes": "16"
      },
      "t_bytes32": {
        "encoding": "inplace",
        "label": "bytes32",
        "numberOfBytes": "32"
      },
      "t_bytes_storage": {
        "encoding": "bytes",
        "label": "bytes",
        "numberOfBytes": "32"
      },
      "t_contract(Indexer)10830": {
        "encoding": "inplace",
        "label": "contract Indexer",
        "numberOfBytes": "20"
      },
      "t_enum(ClaimType)8786": {
        "encoding": "inplace",
        "label": "enum ClaimType",
        "numberOfBytes": "1"
      },
      "t_mapping(t_address,t_struct(AddressSet)2991_storage)": {
        "encoding": "mapping",
        "key": "t_address",
        "label": "mapping(address => struct EnumerableSet.AddressSet)",
        "numberOfBytes": "32",
        "value": "t_struct(AddressSet)2991_storage"
      },
      "t_mapping(t_bytes32,t_struct(GuardInfo)9941_storage)": {
        "encoding": "mapping",
        "key": "t_bytes32",
        "label": "mapping(bytes32 => struct SafePaymasterPlugin.GuardInfo)",
        "numberOfBytes": "32",
        "value": "t_struct(GuardInfo)9941_storage"
      },
      "t_mapping(t_bytes32,t_uint256)": {
        "encoding": "mapping",
        "key": "t_bytes32",
        "label": "mapping(bytes32 => uint256)",
        "numberOfBytes": "32",
        "value": "t_uint256"
      },
      "t_string_storage": {
        "encoding": "bytes",
        "label": "string",
        "numberOfBytes": "32"
      },
      "t_struct(AddressSet)2991_storage": {
        "encoding": "inplace",
        "label": "struct EnumerableSet.AddressSet",
        "members": [
          {
            "astId": 2990,
            "contract": "contracts/SafePaymasterPlugin.sol:SafePaymasterPlugin",
            "label": "_inner",
            "offset": 0,
            "slot": "0",
            "type": "t_struct(Set)2676_storage"
          }
        ],
        "numberOfBytes": "64"
      },
      "t_struct(Bytes32Set)2870_storage": {
        "encoding": "inplace",
        "label": "struct EnumerableSet.Bytes32Set",
        "members": [
          {
            "astId": 2869,
            "contract": "contracts/SafePaymasterPlugin.sol:SafePaymasterPlugin",
            "label": "_inner",
            "offset": 0,
            "slot": "0",
            "type": "t_struct(Set)2676_storage"
          }
        ],
        "numberOfBytes": "64"
      },
      "t_struct(ClaimRequest)8766_storage": {
        "encoding": "inplace",
        "label": "struct ClaimRequest",
        "members": [
          {
            "astId": 8753,
            "contract": "contracts/SafePaymasterPlugin.sol:SafePaymasterPlugin",
            "label": "claimType",
            "offset": 0,
            "slot": "0",
            "type": "t_enum(ClaimType)8786"
          },
          {
            "astId": 8755,
            "contract": "contracts/SafePaymasterPlugin.sol:SafePaymasterPlugin",
            "label": "groupId",
            "offset": 1,
            "slot": "0",
            "type": "t_bytes16"
          },
          {
            "astId": 8757,
            "contract": "contracts/SafePaymasterPlugin.sol:SafePaymasterPlugin",
            "label": "groupTimestamp",
            "offset": 0,
            "slot": "1",
            "type": "t_bytes16"
          },
          {
            "astId": 8759,
            "contract": "contracts/SafePaymasterPlugin.sol:SafePaymasterPlugin",
            "label": "value",
            "offset": 0,
            "slot": "2",
            "type": "t_uint256"
          },
          {
            "astId": 8761,
            "contract": "contracts/SafePaymasterPlugin.sol:SafePaymasterPlugin",
            "label": "isOptional",
            "offset": 0,
            "slot": "3",
            "type": "t_bool"
          },
          {
            "astId": 8763,
            "contract": "contracts/SafePaymasterPlugin.sol:SafePaymasterPlugin",
            "label": "isSelectableByUser",
            "offset": 1,
            "slot": "3",
            "type": "t_bool"
          },
          {
            "astId": 8765,
            "contract": "contracts/SafePaymasterPlugin.sol:SafePaymasterPlugin",
            "label": "extraData",
            "offset": 0,
            "slot": "4",
            "type": "t_bytes_storage"
          }
        ],
        "numberOfBytes": "160"
      },
      "t_struct(GuardInfo)9941_storage": {
        "encoding": "inplace",
        "label": "struct SafePaymasterPlugin.GuardInfo",
        "members": [
          {
            "astId": 9931,
            "contract": "contracts/SafePaymasterPlugin.sol:SafePaymasterPlugin",
            "label": "claims",
            "offset": 0,
            "slot": "0",
            "type": "t_array(t_struct(ClaimRequest)8766_storage)dyn_storage"
          },
          {
            "astId": 9934,
            "contract": "contracts/SafePaymasterPlugin.sol:SafePaymasterPlugin",
            "label": "contractAllowedMethods",
            "offset": 0,
            "slot": "1",
            "type": "t_struct(Bytes32Set)2870_storage"
          },
          {
            "astId": 9938,
            "contract": "contracts/SafePaymasterPlugin.sol:SafePaymasterPlugin",
            "label": "timesPerAddress",
            "offset": 0,
            "slot": "3",
            "type": "t_mapping(t_bytes32,t_uint256)"
          },
          {
            "astId": 9940,
            "contract": "contracts/SafePaymasterPlugin.sol:SafePaymasterPlugin",
            "label": "allowedTimesPerAddress",
            "offset": 0,
            "slot": "4",
            "type": "t_uint256"
          }
        ],
        "numberOfBytes": "160"
      },
      "t_struct(Set)2676_storage": {
        "encoding": "inplace",
        "label": "struct EnumerableSet.Set",
        "members": [
          {
            "astId": 2671,
            "contract": "contracts/SafePaymasterPlugin.sol:SafePaymasterPlugin",
            "label": "_values",
            "offset": 0,
            "slot": "0",
            "type": "t_array(t_bytes32)dyn_storage"
          },
          {
            "astId": 2675,
            "contract": "contracts/SafePaymasterPlugin.sol:SafePaymasterPlugin",
            "label": "_indexes",
            "offset": 0,
            "slot": "1",
            "type": "t_mapping(t_bytes32,t_uint256)"
          }
        ],
        "numberOfBytes": "64"
      },
      "t_uint256": {
        "encoding": "inplace",
        "label": "uint256",
        "numberOfBytes": "32"
      }
    }
  }
}