{
  "address": "0x41ab201CcD683B46E37734c59b461c64F7DfE3CE",
  "abi": [
    {
      "inputs": [
        {
          "internalType": "contract Indexer",
          "name": "_indexer",
          "type": "address"
        },
        {
          "internalType": "bytes16",
          "name": "appId",
          "type": "bytes16"
        }
      ],
      "stateMutability": "nonpayable",
      "type": "constructor"
    },
    {
      "inputs": [
        {
          "internalType": "bytes",
          "name": "data",
          "type": "bytes"
        }
      ],
      "name": "FeePaymentFailure",
      "type": "error"
    },
    {
      "inputs": [
        {
          "internalType": "bytes4",
          "name": "data",
          "type": "bytes4"
        }
      ],
      "name": "InvalidRelayMethod",
      "type": "error"
    },
    {
      "inputs": [],
      "name": "InvalidRelayTarget",
      "type": "error"
    },
    {
      "inputs": [],
      "name": "NotPaymasterOwner",
      "type": "error"
    },
    {
      "inputs": [
        {
          "internalType": "bytes",
          "name": "data",
          "type": "bytes"
        }
      ],
      "name": "RelayExecutionFailure",
      "type": "error"
    },
    {
      "inputs": [
        {
          "internalType": "address",
          "name": "origin",
          "type": "address"
        }
      ],
      "name": "UntrustedOrigin",
      "type": "error"
    },
    {
      "inputs": [],
      "name": "invalidZKProof",
      "type": "error"
    },
    {
      "inputs": [],
      "name": "onlyOneTransactionEachTime",
      "type": "error"
    },
    {
      "anonymous": false,
      "inputs": [
        {
          "indexed": true,
          "internalType": "bytes32",
          "name": "metadataHash",
          "type": "bytes32"
        },
        {
          "indexed": false,
          "internalType": "bytes",
          "name": "data",
          "type": "bytes"
        }
      ],
      "name": "Metadata",
      "type": "event"
    },
    {
      "inputs": [],
      "name": "ADDRESSES_PROVIDER_V2",
      "outputs": [
        {
          "internalType": "contract IAddressesProvider",
          "name": "",
          "type": "address"
        }
      ],
      "stateMutability": "view",
      "type": "function"
    },
    {
      "inputs": [],
      "name": "APP_ID",
      "outputs": [
        {
          "internalType": "bytes16",
          "name": "",
          "type": "bytes16"
        }
      ],
      "stateMutability": "view",
      "type": "function"
    },
    {
      "inputs": [],
      "name": "IS_IMPERSONATION_MODE",
      "outputs": [
        {
          "internalType": "bool",
          "name": "",
          "type": "bool"
        }
      ],
      "stateMutability": "view",
      "type": "function"
    },
    {
      "inputs": [],
      "name": "SISMO_CONNECT_LIB_VERSION",
      "outputs": [
        {
          "internalType": "uint256",
          "name": "",
          "type": "uint256"
        }
      ],
      "stateMutability": "view",
      "type": "function"
    },
    {
      "inputs": [],
      "name": "config",
      "outputs": [
        {
          "components": [
            {
              "internalType": "bytes16",
              "name": "appId",
              "type": "bytes16"
            },
            {
              "components": [
                {
                  "internalType": "bool",
                  "name": "isImpersonationMode",
                  "type": "bool"
                }
              ],
              "internalType": "struct VaultConfig",
              "name": "vault",
              "type": "tuple"
            }
          ],
          "internalType": "struct SismoConnectConfig",
          "name": "",
          "type": "tuple"
        }
      ],
      "stateMutability": "view",
      "type": "function"
    },
    {
      "inputs": [
        {
          "internalType": "contract ISafeProtocolManager",
          "name": "manager",
          "type": "address"
        },
        {
          "internalType": "contract ISafe",
          "name": "safe",
          "type": "address"
        },
        {
          "components": [
            {
              "components": [
                {
                  "internalType": "address payable",
                  "name": "to",
                  "type": "address"
                },
                {
                  "internalType": "uint256",
                  "name": "value",
                  "type": "uint256"
                },
                {
                  "internalType": "bytes",
                  "name": "data",
                  "type": "bytes"
                }
              ],
              "internalType": "struct SafeProtocolAction[]",
              "name": "actions",
              "type": "tuple[]"
            },
            {
              "internalType": "uint256",
              "name": "nonce",
              "type": "uint256"
            },
            {
              "internalType": "bytes32",
              "name": "metadataHash",
              "type": "bytes32"
            }
          ],
          "internalType": "struct SafeTransaction",
          "name": "safetx",
          "type": "tuple"
        },
        {
          "internalType": "bytes",
          "name": "proofs",
          "type": "bytes"
        }
      ],
      "name": "executeFromPlugin",
      "outputs": [],
      "stateMutability": "nonpayable",
      "type": "function"
    },
    {
      "inputs": [],
      "name": "metadataHash",
      "outputs": [
        {
          "internalType": "bytes32",
          "name": "",
          "type": "bytes32"
        }
      ],
      "stateMutability": "view",
      "type": "function"
    },
    {
      "inputs": [],
      "name": "metadataProvider",
      "outputs": [
        {
          "internalType": "uint256",
          "name": "providerType",
          "type": "uint256"
        },
        {
          "internalType": "bytes",
          "name": "location",
          "type": "bytes"
        }
      ],
      "stateMutability": "view",
      "type": "function"
    },
    {
      "inputs": [],
      "name": "name",
      "outputs": [
        {
          "internalType": "string",
          "name": "",
          "type": "string"
        }
      ],
      "stateMutability": "view",
      "type": "function"
    },
    {
      "inputs": [],
      "name": "requiresRootAccess",
      "outputs": [
        {
          "internalType": "bool",
          "name": "",
          "type": "bool"
        }
      ],
      "stateMutability": "view",
      "type": "function"
    },
    {
      "inputs": [
        {
          "internalType": "address",
          "name": "safeAddress",
          "type": "address"
        },
        {
          "internalType": "address",
          "name": "contractAddress",
          "type": "address"
        },
        {
          "internalType": "bytes4[]",
          "name": "methods",
          "type": "bytes4[]"
        },
        {
          "internalType": "bytes16[]",
          "name": "groupIDs",
          "type": "bytes16[]"
        },
        {
          "internalType": "uint256",
          "name": "_timesPerAddress",
          "type": "uint256"
        },
        {
          "internalType": "string",
          "name": "guardMetadataCID",
          "type": "string"
        }
      ],
      "name": "setAllowedInteractions",
      "outputs": [],
      "stateMutability": "nonpayable",
      "type": "function"
    },
    {
      "inputs": [
        {
          "internalType": "bytes4",
          "name": "interfaceId",
          "type": "bytes4"
        }
      ],
      "name": "supportsInterface",
      "outputs": [
        {
          "internalType": "bool",
          "name": "",
          "type": "bool"
        }
      ],
      "stateMutability": "view",
      "type": "function"
    },
    {
      "inputs": [
        {
          "internalType": "bytes",
          "name": "sismoConnectResponseProofs",
          "type": "bytes"
        },
        {
          "internalType": "address",
          "name": "relayFor",
          "type": "address"
        },
        {
          "components": [
            {
              "internalType": "enum ClaimType",
              "name": "claimType",
              "type": "uint8"
            },
            {
              "internalType": "bytes16",
              "name": "groupId",
              "type": "bytes16"
            },
            {
              "internalType": "bytes16",
              "name": "groupTimestamp",
              "type": "bytes16"
            },
            {
              "internalType": "uint256",
              "name": "value",
              "type": "uint256"
            },
            {
              "internalType": "bool",
              "name": "isOptional",
              "type": "bool"
            },
            {
              "internalType": "bool",
              "name": "isSelectableByUser",
              "type": "bool"
            },
            {
              "internalType": "bytes",
              "name": "extraData",
              "type": "bytes"
            }
          ],
          "internalType": "struct ClaimRequest[]",
          "name": "requestRequiredClaims",
          "type": "tuple[]"
        }
      ],
      "name": "verifySismoClaims",
      "outputs": [],
      "stateMutability": "view",
      "type": "function"
    },
    {
      "inputs": [],
      "name": "version",
      "outputs": [
        {
          "internalType": "string",
          "name": "",
          "type": "string"
        }
      ],
      "stateMutability": "view",
      "type": "function"
    }
  ],
  "transactionHash": "0x98fa83d803e54674ca85e205309e54eefc096bd789719bcf9018aacc53a96434",
  "args": [
    "0xDEe7c39507D205346F798a4d438BF21F4cd7EF6b",
    "0x2d31f5ac41cdeba21728cca8842ff2f7"
  ],
  "numDeployments": 1,
  "solcInputHash": "fb896e97f14bdf38443adec492957b83",
  "bytecode": "0x6101a06040523480156200001257600080fd5b50604051620042e7380380620042e7833981016040819052620000359162000858565b620000408162000587565b6040518060a00160405280604051806040016040528060118152602001702d2596a9b0b33296a830bcb6b0b9ba32b960791b8152508152602001604051806040016040528060058152602001640312e302e360dc1b8152508152602001600015158152602001604051806020016040528060008152508152602001620000d130620005f360201b620008be1760201c565b604051602001620000e39190620008c9565b60408051601f19818403018152919052905280518190600090620001089082620009db565b5060208101516001906200011d9082620009db565b50604081015115156080526200013f8162000611602090811b620008d417901c565b8051906020012060a081815250505060a0517f522c683f99251eea7f3b027592e92a5398e7582983be1f7c0f33715ce025740f62000188836200061160201b620008d41760201c565b60405162000197919062000ad5565b60405180910390a25080516001600160801b0319166101605260208082015151151561018052604080518082018252601981527f7369736d6f436f6e6e65637456657269666965722d76312e3200000000000000928101929092525163349f642f60e11b8152733cd5334eb64ebbd4003b72022cc25465f1bfcee69163693ec85e9162000228919060040162000ad5565b602060405180830381865afa15801562000246573d6000803e3d6000fd5b505050506040513d601f19601f820116820180604052508101906200026c919062000aea565b6001600160a01b031660c052604080518082018252601781527f61757468526571756573744275696c6465722d76312e310000000000000000006020820152905163349f642f60e11b8152733cd5334eb64ebbd4003b72022cc25465f1bfcee69163693ec85e91620002e2919060040162000ad5565b602060405180830381865afa15801562000300573d6000803e3d6000fd5b505050506040513d601f19601f8201168201806040525081019062000326919062000aea565b6001600160a01b031660e052604080518082018252601881527f636c61696d526571756573744275696c6465722d76312e3100000000000000006020820152905163349f642f60e11b8152733cd5334eb64ebbd4003b72022cc25465f1bfcee69163693ec85e916200039c919060040162000ad5565b602060405180830381865afa158015620003ba573d6000803e3d6000fd5b505050506040513d601f19601f82011682018060405250810190620003e0919062000aea565b6001600160a01b031661010052604080518082018252601581527f7369676e61747572654275696c6465722d76312e3100000000000000000000006020820152905163349f642f60e11b8152733cd5334eb64ebbd4003b72022cc25465f1bfcee69163693ec85e9162000457919060040162000ad5565b602060405180830381865afa15801562000475573d6000803e3d6000fd5b505050506040513d601f19601f820116820180604052508101906200049b919062000aea565b6001600160a01b031661012052604080518082018252601381527f726571756573744275696c6465722d76312e31000000000000000000000000006020820152905163349f642f60e11b8152733cd5334eb64ebbd4003b72022cc25465f1bfcee69163693ec85e9162000512919060040162000ad5565b602060405180830381865afa15801562000530573d6000803e3d6000fd5b505050506040513d601f19601f8201168201806040525081019062000556919062000aea565b6001600160a01b0390811661014052600280546001600160a01b03191694909116939093179092555062000c289050565b620005ae604080518082018252600080825282516020818101909452908152909182015290565b604080518082019091526001600160801b03198316815260208101620005eb60408051602080820183526000918290528251908101909252815290565b905292915050565b60606200060b6001600160a01b03831660146200067c565b92915050565b6060600080836000015184602001518560400151866060015187608001516040516020016200064595949392919062000b0a565b60408051601f19818403018152908290526200066693929160200162000b73565b6040516020818303038152906040529050919050565b606060006200068d83600262000bc8565b6200069a90600262000be2565b6001600160401b03811115620006b457620006b462000936565b6040519080825280601f01601f191660200182016040528015620006df576020820181803683370190505b509050600360fc1b81600081518110620006fd57620006fd62000bf8565b60200101906001600160f81b031916908160001a905350600f60fb1b816001815181106200072f576200072f62000bf8565b60200101906001600160f81b031916908160001a90535060006200075584600262000bc8565b6200076290600162000be2565b90505b6001811115620007e4576f181899199a1a9b1b9c1cb0b131b232b360811b85600f16601081106200079a576200079a62000bf8565b1a60f81b828281518110620007b357620007b362000bf8565b60200101906001600160f81b031916908160001a90535060049490941c93620007dc8162000c0e565b905062000765565b508315620008385760405162461bcd60e51b815260206004820181905260248201527f537472696e67733a20686578206c656e67746820696e73756666696369656e74604482015260640160405180910390fd5b9392505050565b6001600160a01b03811681146200085557600080fd5b50565b600080604083850312156200086c57600080fd5b825162000879816200083f565b60208401519092506001600160801b0319811681146200089857600080fd5b809150509250929050565b60005b83811015620008c0578181015183820152602001620008a6565b50506000910152565b7f68747470733a2f2f6e696a6f65312e6769746875622e696f2f536166652e506181527f796d61737465722f232f7a6b536166655061796d61737465722f0000000000006020820152600082516200092981603a850160208701620008a3565b91909101603a0192915050565b634e487b7160e01b600052604160045260246000fd5b600181811c908216806200096157607f821691505b6020821081036200098257634e487b7160e01b600052602260045260246000fd5b50919050565b601f821115620009d657600081815260208120601f850160051c81016020861015620009b15750805b601f850160051c820191505b81811015620009d257828155600101620009bd565b5050505b505050565b81516001600160401b03811115620009f757620009f762000936565b62000a0f8162000a0884546200094c565b8462000988565b602080601f83116001811462000a47576000841562000a2e5750858301515b600019600386901b1c1916600185901b178555620009d2565b600085815260208120601f198616915b8281101562000a785788860151825594840194600190910190840162000a57565b508582101562000a975787850151600019600388901b60f8161c191681555b5050505050600190811b01905550565b6000815180845262000ac1816020860160208601620008a3565b601f01601f19169290920160200192915050565b60208152600062000838602083018462000aa7565b60006020828403121562000afd57600080fd5b815162000838816200083f565b60a08152600062000b1f60a083018862000aa7565b828103602084015262000b33818862000aa7565b90508515156040840152828103606084015262000b51818662000aa7565b9050828103608084015262000b67818562000aa7565b98975050505050505050565b600060ff60f81b808660f81b168352808560f81b16600184015250825162000ba3816002850160208701620008a3565b91909101600201949350505050565b634e487b7160e01b600052601160045260246000fd5b80820281158282048414176200060b576200060b62000bb2565b808201808211156200060b576200060b62000bb2565b634e487b7160e01b600052603260045260246000fd5b60008162000c205762000c2062000bb2565b506000190190565b60805160a05160c05160e051610100516101205161014051610160516101805161364062000ca76000396000818161019601526103d70152600081816101e401526103b6015260006114e401526000610a9101526000610c6e015260006109e801526000610b6d01526000610224015260006101bd01526136406000f3fe608060405234801561001057600080fd5b50600436106100ea5760003560e01c8063be193d271161008c578063c9512d9911610066578063c9512d9914610254578063cd6be61f1461025c578063d3d72d2a1461026f578063db040a3f146102a657600080fd5b8063be193d27146101b8578063c187bbc1146101df578063c5a1d7f01461021f57600080fd5b806354fd4d50116100c857806354fd4d501461015f57806379502c5514610167578063943c59051461017c578063a183dc271461019157600080fd5b806301ffc9a7146100ef57806306fdde0314610117578063469163011461012c575b600080fd5b6101026100fd366004611856565b6102b9565b60405190151581526020015b60405180910390f35b61011f6102f0565b60405161010e91906118d0565b610147733cd5334eb64ebbd4003b72022cc25465f1bfcee681565b6040516001600160a01b03909116815260200161010e565b61011f61037e565b61016f61038b565b60405161010e91906118e3565b61018f61018a366004611b14565b610400565b005b6101027f000000000000000000000000000000000000000000000000000000000000000081565b6101027f000000000000000000000000000000000000000000000000000000000000000081565b6102067f000000000000000000000000000000000000000000000000000000000000000081565b6040516001600160801b0319909116815260200161010e565b6102467f000000000000000000000000000000000000000000000000000000000000000081565b60405190815260200161010e565b610246600281565b61018f61026a366004611cd5565b6104f8565b610298604080513060208201526003916060910160405160208183030381529060405290509091565b60405161010e929190611daa565b61018f6102b4366004611dc3565b6107de565b60006001600160e01b03198216631fe741af60e11b14806102ea57506001600160e01b031982166301ffc9a760e01b145b92915050565b600080546102fd90611e53565b80601f016020809104026020016040519081016040528092919081815260200182805461032990611e53565b80156103765780601f1061034b57610100808354040283529160200191610376565b820191906000526020600020905b81548152906001019060200180831161035957829003601f168201915b505050505081565b600180546102fd90611e53565b6103b1604080518082018252600080825282516020818101909452908152909182015290565b6103fb7f00000000000000000000000000000000000000000000000000000000000000007f000000000000000000000000000000000000000000000000000000000000000061093b565b905090565b604080516001808252818301909252600091816020015b6040805160c081018252600080825260208083018290529282018190526060808301829052608083019190915260a0820152825260001990920191018161041757905050905061046760006109a9565b8160008151811061047a5761047a611e8d565b602002602001018190525060006104c98583856104c4886040516020016104b091906001600160a01b0391909116815260200190565b604051602081830303815290604052610a6a565b610b13565b90508251816080015151036104f157604051635bf4708f60e11b815260040160405180910390fd5b5050505050565b604080516001600160a01b038a8116602080840191909152908a16828401528251808303840181526060909201835281519181019190912060008181526004909252918120905b85811015610660578161057788888481811061055d5761055d611e8d565b90506020020160208101906105729190611ea3565b610c14565b815460018181018455600093845260209093208251600590920201805492939092839160ff19909116908360048111156105b3576105b3611ec0565b02179055506020820151815470ffffffffffffffffffffffffffffffff001916610100608092831c810291909117835560408401516001840180546001600160801b03191691841c919091179055606084015160028401559083015160038301805460a086015161ffff1990911692151561ff0019169290921791151590920217905560c0820151600482019061064a9082611f25565b505050808061065890611ffa565b91505061053f565b506001600160a01b038a16600090815260036020526040902061068290610ce5565b6000036106f2576002546040516370da16cf60e11b81526001600160a01b039091169063e1b42d9e906106bb908d908790600401612013565b600060405180830381600087803b1580156106d557600080fd5b505af11580156106e9573d6000803e3d6000fd5b50505050610757565b600254604051638fe4b44560e01b81526001600160a01b0390911690638fe4b44590610724908d908790600401612013565b600060405180830381600087803b15801561073e57600080fd5b505af1158015610752573d6000803e3d6000fd5b505050505b6001600160a01b038a166000908152600360205260409020610779908a610cef565b5060005b878110156107cc576107c389898381811061079a5761079a611e8d565b90506020020160208101906107af9190611856565b60018401906001600160e01b031916610d0b565b5060010161077d565b50600401929092555050505050505050565b6107e733610d17565b6108315760405162461bcd60e51b81526020600482015260166024820152756f6e6c7947656c61746f52656c61794552433237373160501b60448201526064015b60405180910390fd5b600061083b610dc7565b85856108478680612037565b600081811061085857610858611e8d565b905060200281019061086a9190612080565b6108789060408101906120a0565b60405160200161088c95949392919061210f565b6040516020818303038152906040528051906020012060001c90506108b385858585610de8565b6104f1858583611247565b60606102ea6001600160a01b038316601461132a565b60606000808360000151846020015185604001518660600151876080015160405160200161090695949392919061214f565b60408051601f19818403018152908290526109259392916020016121b0565b6040516020818303038152906040529050919050565b610961604080518082018252600080825282516020818101909452908152909182015290565b6040518060400160405280846001600160801b03191681526020016109a084604080516020808201835260009091528151908101909152901515815290565b90529392505050565b6040805160c0810182526000808252602082018190528183018190526060808301829052608083019190915260a08201529051633a0ba6ff60e01b81527f00000000000000000000000000000000000000000000000000000000000000006001600160a01b031690633a0ba6ff90610a25908590600401612201565b600060405180830381865afa158015610a42573d6000803e3d6000fd5b505050506040513d6000823e601f3d908101601f191682016040526102ea9190810190612309565b604080516060808201835280825260006020830152818301529051631a0d7ccb60e21b81527f00000000000000000000000000000000000000000000000000000000000000006001600160a01b031690636835f32c90610ace9085906004016118d0565b600060405180830381865afa158015610aeb573d6000803e3d6000fd5b505050506040513d6000823e601f3d908101601f191682016040526102ea91908101906123c1565b6040805160c0810182526000808252602082018190529181019190915260608082018190526080820181905260a0820152600085806020019051810190610b5a9190612760565b90506000610b698686866114c5565b90507f00000000000000000000000000000000000000000000000000000000000000006001600160a01b03166312b037ff8383610ba461038b565b6040518463ffffffff1660e01b8152600401610bc293929190612ab4565b600060405180830381865afa158015610bdf573d6000803e3d6000fd5b505050506040513d6000823e601f3d908101601f19168201604052610c079190810190612eba565b925050505b949350505050565b6040805160e08101825260008082526020820181905291810182905260608082018390526080820183905260a082019290925260c08101919091526040516338de608760e21b81526001600160801b0319831660048201527f00000000000000000000000000000000000000000000000000000000000000006001600160a01b03169063e379821c90602401600060405180830381865afa158015610cbd573d6000803e3d6000fd5b505050506040513d6000823e601f3d908101601f191682016040526102ea9190810190613040565b60006102ea825490565b6000610d04836001600160a01b038416611562565b9392505050565b6000610d048383611562565b6000466101441480610d2a575046610118145b15610d7b576001600160a01b0382167322dcc39b2ac376862183dd35a1664798dafc7da614806102ea57506001600160a01b03821673ba4082f4961c8fb76231995c967cd9aa40f321b51492915050565b6001600160a01b03821673b539068872230f20456cf38ec52ef2f91af4ae4914806102ea57506001600160a01b038216738598806401a63ddf52473f1b3c55bc9e33e2d73b1492915050565b6000610dd233610d17565b610ddb57503390565b5060131936013560601c90565b6000610df48380612037565b9150506001811115610e1957604051636584df1d60e01b815260040160405180910390fd5b6000610e258480612037565b6000818110610e3657610e36611e8d565b9050602002810190610e489190612080565b610e5190613074565b90506000610e5f8580612037565b6000818110610e7057610e70611e8d565b9050602002810190610e829190612080565b610e909060408101906120a0565b610e9f916004916000916130ca565b610ea8916130f4565b82516001600160a01b03881660009081526003602052604081206001600160e01b031993909316935091610edb916115b1565b905080610efe57604051600162d9e30d60e01b0319815260040160405180910390fd5b8251604080516001600160a01b038a811660208084019190915293168183015281518082038301815260609091018252805190830120600081815260049093529120610f4d60018201856115d3565b15610f7757604051635dd5516360e11b81526001600160e01b031985166004820152602401610828565b8054156110fa576110fa87610f8a610dc7565b83546040805160208084028201810190925282815291869160009084015b828210156110f1576000848152602090206040805160e08101909152600584029091018054829060ff166004811115610fe357610fe3611ec0565b6004811115610ff457610ff4611ec0565b8152815461010090819004608090811b6001600160801b031990811660208501526001850154821b16604084015260028401546060840152600384015460ff8082161515928501929092529190910416151560a082015260048201805460c09092019161106090611e53565b80601f016020809104026020016040519081016040528092919081815260200182805461108c90611e53565b80156110d95780601f106110ae576101008083540402835291602001916110d9565b820191906000526020600020905b8154815290600101906020018083116110bc57829003601f168201915b50505050508152505081526020019060010190610fa8565b50505050610400565b845160405161111f9186916020019182526001600160a01b0316602082015260400190565b6040516020818303038152906040528051906020012091508060030160008381526020019081526020016000205481600401541161115c57600080fd5b6000828152600382016020526040812080549161117883611ffa565b9091555050604051630f99191560e01b81526001600160a01b038b1690630f991915906111ab908c908c90600401613124565b6000604051808303816000875af19250505080156111eb57506040513d6000823e601f3d908101601f191682016040526111e8919081019061326f565b60015b61123a573d808015611219576040519150601f19603f3d011682016040523d82523d6000602084013e61121e565b606091505b508060405163175f91fb60e21b815260040161082891906118d0565b5050505050505050505050565b600061126a36604719013560601c36605b19013560601c366033190135856115eb565b604051630f99191560e01b81529091506001600160a01b03851690630f9919159061129b908690859060040161331f565b6000604051808303816000875af19250505080156112db57506040513d6000823e601f3d908101601f191682016040526112d8919081019061326f565b60015b6104f1573d808015611309576040519150601f19603f3d011682016040523d82523d6000602084013e61130e565b606091505b50806040516349620fc960e01b815260040161082891906118d0565b606060006113398360026133cf565b6113449060026133e6565b6001600160401b0381111561135b5761135b611907565b6040519080825280601f01601f191660200182016040528015611385576020820181803683370190505b509050600360fc1b816000815181106113a0576113a0611e8d565b60200101906001600160f81b031916908160001a905350600f60fb1b816001815181106113cf576113cf611e8d565b60200101906001600160f81b031916908160001a90535060006113f38460026133cf565b6113fe9060016133e6565b90505b6001811115611476576f181899199a1a9b1b9c1cb0b131b232b360811b85600f166010811061143257611432611e8d565b1a60f81b82828151811061144857611448611e8d565b60200101906001600160f81b031916908160001a90535060049490941c9361146f816133f9565b9050611401565b508315610d045760405162461bcd60e51b815260206004820181905260248201527f537472696e67733a20686578206c656e67746820696e73756666696369656e746044820152606401610828565b6114cd611806565b604051634c92019b60e11b81526001600160a01b037f0000000000000000000000000000000000000000000000000000000000000000169063992403369061151d90879087908790600401613410565b600060405180830381865afa15801561153a573d6000803e3d6000fd5b505050506040513d6000823e601f3d908101601f19168201604052610c0c91908101906134d2565b60008181526001830160205260408120546115a9575081546001818101845560008481526020808220909301849055845484825282860190935260409020919091556102ea565b5060006102ea565b6001600160a01b03811660009081526001830160205260408120541515610d04565b60008181526001830160205260408120541515610d04565b60408051606080820183528152600060208201819052818301819052825160018082528185019094529192909190816020015b6040805160608082018352600080835260208301529181019190915281526020019060019003908161161e5790505090506001600160a01b03861673eeeeeeeeeeeeeeeeeeeeeeeeeeeeeeeeeeeeeeee148061168157506001600160a01b038616155b1561171957848160008151811061169a5761169a611e8d565b6020026020010151600001906001600160a01b031690816001600160a01b03168152505083816000815181106116d2576116d2611e8d565b60200260200101516020018181525050604051806020016040528060008152508160008151811061170557611705611e8d565b6020026020010151604001819052506117dd565b858160008151811061172d5761172d611e8d565b6020026020010151600001906001600160a01b031690816001600160a01b03168152505060008160008151811061176657611766611e8d565b60209081029190910181015101526040516001600160a01b03861660248201526044810185905260640160408051601f198184030181529190526020810180516001600160e01b031663a9059cbb60e01b179052815182906000906117cd576117cd611e8d565b6020026020010151604001819052505b60408051606081018252918252602082018490526000908201529050949350505050565b905290565b604051806080016040528060006001600160801b03191681526020016060815260200160608152602001611801604051806060016040528060608152602001600015158152602001606081525090565b60006020828403121561186857600080fd5b81356001600160e01b031981168114610d0457600080fd5b60005b8381101561189b578181015183820152602001611883565b50506000910152565b600081518084526118bc816020860160208601611880565b601f01601f19169290920160200192915050565b602081526000610d0460208301846118a4565b81516001600160801b031916815260208083015151151590820152604081016102ea565b634e487b7160e01b600052604160045260246000fd5b60405160e081016001600160401b038111828210171561193f5761193f611907565b60405290565b60405160c081016001600160401b038111828210171561193f5761193f611907565b604051606081016001600160401b038111828210171561193f5761193f611907565b60405160a081016001600160401b038111828210171561193f5761193f611907565b604051608081016001600160401b038111828210171561193f5761193f611907565b604051601f8201601f191681016001600160401b03811182821017156119f5576119f5611907565b604052919050565b60006001600160401b03821115611a1657611a16611907565b50601f01601f191660200190565b6000611a37611a32846119fd565b6119cd565b9050828152838383011115611a4b57600080fd5b828260208301376000602084830101529392505050565b600082601f830112611a7357600080fd5b610d0483833560208501611a24565b6001600160a01b0381168114611a9757600080fd5b50565b60006001600160401b03821115611ab357611ab3611907565b5060051b60200190565b60058110611a9757600080fd5b8035611ad581611abd565b919050565b6001600160801b031981168114611a9757600080fd5b8035611ad581611ada565b8015158114611a9757600080fd5b8035611ad581611afb565b600080600060608486031215611b2957600080fd5b83356001600160401b0380821115611b4057600080fd5b611b4c87838801611a62565b94506020915081860135611b5f81611a82565b9350604086013581811115611b7357600080fd5b8601601f81018813611b8457600080fd5b8035611b92611a3282611a9a565b81815260059190911b8201840190848101908a831115611bb157600080fd5b8584015b83811015611c7957803586811115611bcc57600080fd5b850160e0818e03601f19011215611be257600080fd5b611bea61191d565b611bf5898301611aca565b8152611c0360408301611af0565b89820152611c1360608301611af0565b604082015260808201356060820152611c2e60a08301611b09565b6080820152611c3f60c08301611b09565b60a082015260e082013588811115611c575760008081fd5b611c658f8b83860101611a62565b60c083015250845250918601918601611bb5565b508096505050505050509250925092565b60008083601f840112611c9c57600080fd5b5081356001600160401b03811115611cb357600080fd5b6020830191508360208260051b8501011115611cce57600080fd5b9250929050565b60008060008060008060008060c0898b031215611cf157600080fd5b8835611cfc81611a82565b97506020890135611d0c81611a82565b965060408901356001600160401b0380821115611d2857600080fd5b611d348c838d01611c8a565b909850965060608b0135915080821115611d4d57600080fd5b611d598c838d01611c8a565b909650945060808b0135935060a08b0135915080821115611d7957600080fd5b508901601f81018b13611d8b57600080fd5b611d9a8b823560208401611a24565b9150509295985092959890939650565b828152604060208201526000610c0c60408301846118a4565b60008060008060808587031215611dd957600080fd5b8435611de481611a82565b93506020850135611df481611a82565b925060408501356001600160401b0380821115611e1057600080fd5b9086019060608289031215611e2457600080fd5b90925060608601359080821115611e3a57600080fd5b50611e4787828801611a62565b91505092959194509250565b600181811c90821680611e6757607f821691505b602082108103611e8757634e487b7160e01b600052602260045260246000fd5b50919050565b634e487b7160e01b600052603260045260246000fd5b600060208284031215611eb557600080fd5b8135610d0481611ada565b634e487b7160e01b600052602160045260246000fd5b601f821115611f2057600081815260208120601f850160051c81016020861015611efd5750805b601f850160051c820191505b81811015611f1c57828155600101611f09565b5050505b505050565b81516001600160401b03811115611f3e57611f3e611907565b611f5281611f4c8454611e53565b84611ed6565b602080601f831160018114611f875760008415611f6f5750858301515b600019600386901b1c1916600185901b178555611f1c565b600085815260208120601f198616915b82811015611fb657888601518255948401946001909101908401611f97565b5085821015611fd45787850151600019600388901b60f8161c191681555b5050505050600190811b01905550565b634e487b7160e01b600052601160045260246000fd5b60006001820161200c5761200c611fe4565b5060010190565b6001600160a01b0383168152604060208201819052600090610c0c908301846118a4565b6000808335601e1984360301811261204e57600080fd5b8301803591506001600160401b0382111561206857600080fd5b6020019150600581901b3603821315611cce57600080fd5b60008235605e1983360301811261209657600080fd5b9190910192915050565b6000808335601e198436030181126120b757600080fd5b8301803591506001600160401b038211156120d157600080fd5b602001915036819003821315611cce57600080fd5b81835281816020850137506000828201602090810191909152601f909101601f19169091010190565b6001600160a01b03868116825285811660208301528416604082015260806060820181905260009061214490830184866120e6565b979650505050505050565b60a08152600061216260a08301886118a4565b828103602084015261217481886118a4565b90508515156040840152828103606084015261219081866118a4565b905082810360808401526121a481856118a4565b98975050505050505050565b600060ff60f81b808660f81b168352808560f81b1660018401525082516121de816002850160208701611880565b91909101600201949350505050565b600681106121fd576121fd611ec0565b9052565b602081016102ea82846121ed565b805160068110611ad557600080fd5b8051611ad581611afb565b600082601f83011261223a57600080fd5b8151612248611a32826119fd565b81815284602083860101111561225d57600080fd5b610c0c826020830160208701611880565b600060c0828403121561228057600080fd5b612288611945565b90506122938261220f565b81526020820151602082015260408201516122ad81611afb565b604082015260608201516122c081611afb565b606082015260808201516122d381611afb565b608082015260a08201516001600160401b038111156122f157600080fd5b6122fd84828501612229565b60a08301525092915050565b60006020828403121561231b57600080fd5b81516001600160401b0381111561233157600080fd5b610c0c8482850161226e565b60006060828403121561234f57600080fd5b612357611967565b905081516001600160401b038082111561237057600080fd5b61237c85838601612229565b83526020840151915061238e82611afb565b81602084015260408401519150808211156123a857600080fd5b506123b584828501612229565b60408301525092915050565b6000602082840312156123d357600080fd5b81516001600160401b038111156123e957600080fd5b610c0c8482850161233d565b8051611ad581611ada565b600082601f83011261241157600080fd5b81516020612421611a3283611a9a565b82815260059290921b8401810191818101908684111561244057600080fd5b8286015b848110156124fe5780516001600160401b03808211156124645760008081fd5b9088019060a0828b03601f190181131561247e5760008081fd5b612486611989565b61249188850161220f565b81526040808501516124a281611afb565b828a01526060858101516124b581611afb565b80838501525060809150818601518184015250828501519250838311156124dc5760008081fd5b6124ea8d8a85880101612229565b908201528652505050918301918301612444565b509695505050505050565b8051611ad581611abd565b600082601f83011261252557600080fd5b81516020612535611a3283611a9a565b82815260059290921b8401810191818101908684111561255457600080fd5b8286015b848110156124fe5780516001600160401b03808211156125785760008081fd5b9088019060c0828b03601f19018113156125925760008081fd5b61259a611945565b878401516125a781611abd565b81526040848101516125b881611ada565b828a01526060858101516125cb81611ada565b808385015250608091506125e082870161221e565b9083015260a0858101518284015292850151928484111561260357600091508182fd5b6126118e8b86890101612229565b90830152508652505050918301918301612558565b600082601f83011261263757600080fd5b81516020612647611a3283611a9a565b82815260059290921b8401810191818101908684111561266657600080fd5b8286015b848110156124fe5780516001600160401b038082111561268a5760008081fd5b9088019060a0828b03601f19018113156126a45760008081fd5b6126ac611989565b87840151838111156126be5760008081fd5b6126cc8d8a83880101612400565b825250604080850151848111156126e35760008081fd5b6126f18e8b83890101612514565b8a84015250606080860151828401526080915081860151858111156127165760008081fd5b6127248f8c838a0101612229565b8285015250508285015192508383111561273e5760008081fd5b61274c8d8a85880101612229565b90820152865250505091830191830161266a565b60006020828403121561277257600080fd5b81516001600160401b038082111561278957600080fd5b9083019060a0828603121561279d57600080fd5b6127a5611989565b82516127b081611ada565b815260208301516127c081611ada565b6020820152604083810151908201526060830151828111156127e157600080fd5b6127ed87828601612229565b60608301525060808301518281111561280557600080fd5b61281187828601612626565b60808301525095945050505050565b600581106121fd576121fd611ec0565b600081518084526020808501808196508360051b8101915082860160005b858110156128cd578284038952815160c061286a868351612820565b818701516001600160801b031990811687890152604080840151909116908701526060808301511515908701526080808301519087015260a0918201519186018190526128b9818701836118a4565b9a87019a955050509084019060010161284e565b5091979650505050505050565b600081518084526020808501808196508360051b8101915082860160005b858110156128cd578284038952815160c06129148683516121ed565b818701518688015260408083015115159087015260608083015115159087015260808083015115159087015260a091820151918601819052612958818701836118a4565b9a87019a95505050908401906001016128f8565b600081518084526020808501808196508360051b8101915082860160005b858110156128cd578284038952815160e06129a6868351612820565b818701516001600160801b031990811687890152604080840151909116908701526060808301519087015260808083015115159087015260a08083015115159087015260c091820151918601819052612a01818701836118a4565b9a87019a955050509084019060010161298a565b6000815160608452612a2a60608501826118a4565b905060208301511515602085015260408301518482036040860152612a4f82826118a4565b95945050505050565b6001600160801b031981511682526000602082015160806020850152612a8160808501826128da565b905060408301518482036040860152612a9a828261296c565b91505060608301518482036060860152612a4f8282612a15565b600060808083526001600160801b0319808751168285015260208088015182811660a087015250604088015191508160c08601526060880151915060a060e0860152612b046101208601836118a4565b88840151868203607f1901610100880152805180835291935082019082840190600581901b8501840160005b82811015612c3d57601f198783030184528451805160a0808552815190850181905260c0600582901b86018101928a01919086019060005b81811015612bd25760bf198886030183528351612b868682516121ed565b8c81015115158d870152604081015115156040870152606081015160608701528e810151905060a08f870152612bbf60a08701826118a4565b955050928b0192918b0191600101612b68565b505050508782015184820389860152612beb8282612830565b9150506040820151604085015260608201518482036060860152612c0f82826118a4565b9150508982015191508381038a850152612c2981836118a4565b968801969588019593505050600101612b30565b50888103858a0152612c4f818c612a58565b8a516001600160801b03191660408b015260208b015151151560608b01529750610c0c9650505050505050565b600082601f830112612c8d57600080fd5b81516020612c9d611a3283611a9a565b82815260059290921b84018101918181019086841115612cbc57600080fd5b8286015b848110156124fe5780516001600160401b0380821115612ce05760008081fd5b9088019060a0828b03601f1901811315612cfa5760008081fd5b612d02611989565b612d0d88850161220f565b8152604080850151612d1e81611afb565b808a8401525060608086015182840152608091508186015185811115612d445760008081fd5b612d528f8c838a0101612229565b82850152505082850151925083831115612d6c5760008081fd5b612d7a8d8a85880101612229565b908201528652505050918301918301612cc0565b600082601f830112612d9f57600080fd5b81516020612daf611a3283611a9a565b82815260059290921b84018101918181019086841115612dce57600080fd5b8286015b848110156124fe5780516001600160401b0380821115612df25760008081fd5b9088019060e0828b03601f1901811315612e0c5760008081fd5b612e1461191d565b612e1f888501612509565b81526040612e2e8186016123f5565b898301526060612e3f8187016123f5565b828401526080915081860151818401525060a08086015185811115612e645760008081fd5b612e728f8c838a0101612229565b838501525060c0915081860151818401525082850151925083831115612e985760008081fd5b612ea68d8a85880101612229565b908201528652505050918301918301612dd2565b600060208284031215612ecc57600080fd5b81516001600160401b0380821115612ee357600080fd5b9083019060c08286031215612ef757600080fd5b612eff611945565b612f08836123f5565b8152612f16602084016123f5565b602082015260408301516040820152606083015182811115612f3757600080fd5b612f4387828601612c7c565b606083015250608083015182811115612f5b57600080fd5b612f6787828601612d8e565b60808301525060a083015182811115612f7f57600080fd5b612f8b87828601612229565b60a08301525095945050505050565b600060e08284031215612fac57600080fd5b612fb461191d565b9050612fbf82612509565b8152612fcd602083016123f5565b6020820152612fde604083016123f5565b604082015260608201516060820152612ff96080830161221e565b608082015261300a60a0830161221e565b60a082015260c08201516001600160401b0381111561302857600080fd5b61303484828501612229565b60c08301525092915050565b60006020828403121561305257600080fd5b81516001600160401b0381111561306857600080fd5b610c0c84828501612f9a565b60006060823603121561308657600080fd5b61308e611967565b823561309981611a82565b81526020838101359082015260408301356001600160401b038111156130be57600080fd5b6123b536828601611a62565b600080858511156130da57600080fd5b838611156130e757600080fd5b5050820193919092039150565b6001600160e01b0319813581811691600485101561311c5780818660040360031b1b83161692505b505092915050565b6001600160a01b038381168252604060208084018290526000929060a08501863536889003601e1901811261315857600080fd5b870180358382016001600160401b038083111561317457600080fd5b8260051b80360383131561318757600080fd5b60608b8a01819052958490528a0160c0908101956000918c0136879003607e19015b86841015613248578d890360bf1901825285358181126131c857600080fd5b88018a8101356131d781611a82565b8c168a52808d01358b8b01528381013536829003603e190181126131fa57600080fd5b018c8101908b01358681111561320f57600080fd5b80360382131561321e57600080fd5b848e8c0152613230858c0182846120e6565b9a5050509489019460019390930192908901906131a9565b5050878d0135818d0152505050505050838701356080870152809450505050509392505050565b6000602080838503121561328257600080fd5b82516001600160401b038082111561329957600080fd5b818501915085601f8301126132ad57600080fd5b81516132bb611a3282611a9a565b81815260059190911b830184019084810190888311156132da57600080fd5b8585015b83811015613312578051858111156132f65760008081fd5b6133048b89838a0101612229565b8452509186019186016132de565b5098975050505050505050565b6000604060018060a01b0380861684526020828186015260a0850186516060808689015282825180855260c08a01915060c08160051b8b01019450858401935060005b818110156133ab578a860360bf1901835284518051891687528781015188880152890151898701859052613398858801826118a4565b9650509386019391860191600101613362565b50505083890151818901525050838701516080870152809450505050509392505050565b80820281158282048414176102ea576102ea611fe4565b808201808211156102ea576102ea611fe4565b60008161340857613408611fe4565b506000190190565b60608152600061342360608301866128da565b8281036020840152613435818661296c565b905082810360408401526134498185612a15565b9695505050505050565b600082601f83011261346457600080fd5b81516020613474611a3283611a9a565b82815260059290921b8401810191818101908684111561349357600080fd5b8286015b848110156124fe5780516001600160401b038111156134b65760008081fd5b6134c48986838b0101612f9a565b845250918301918301613497565b600060208083850312156134e557600080fd5b82516001600160401b03808211156134fc57600080fd5b908401906080828703121561351057600080fd5b6135186119ab565b825161352381611ada565b8152828401518281111561353657600080fd5b8301601f8101881361354757600080fd5b8051613555611a3282611a9a565b81815260059190911b8201860190868101908a83111561357457600080fd5b8784015b838110156135ac578051878111156135905760008081fd5b61359e8d8b8389010161226e565b845250918801918801613578565b5080888601525050505060408301519350818411156135ca57600080fd5b6135d687858501613453565b604082015260608301519350818411156135ef57600080fd5b6135fb8785850161233d565b6060820152969550505050505056fea2646970667358221220c0be3a1ab65a2ccb7ff4e481ac212b6a73fa67920b6601d19176c31f9a78324164736f6c63430008120033",
  "devdoc": {
    "kind": "dev",
    "methods": {
      "metadataProvider()": {
        "returns": {
          "location": "bytes",
          "providerType": "uint256 Type of metadata provider"
        }
      },
      "supportsInterface(bytes4)": {
        "details": "Returns true if this contract implements the interface defined by `interfaceId`. See the corresponding https://eips.ethereum.org/EIPS/eip-165#how-interfaces-are-identified[EIP section] to learn more about how these ids are created. This function call must use less than 30 000 gas."
      }
    },
    "version": 1
  },
  "userdoc": {
    "kind": "user",
    "methods": {
      "metadataProvider()": {
        "notice": "A function that returns information about the type of metadata provider and its location.         For more information on metadata provider, refer to https://github.com/safe-global/safe-core-protocol-specs/."
      },
      "name()": {
        "notice": "A funtion that returns name of the plugin"
      },
      "requiresRootAccess()": {
        "notice": "A function that indicates if the plugin requires root access to a Safe."
      },
      "version()": {
        "notice": "A function that returns version of the plugin"
      }
    },
    "version": 1
  },
  "storageLayout": {
    "storage": [
      {
        "astId": 8889,
        "contract": "contracts/SafePaymasterPlugin.sol:SafePaymasterPlugin",
        "label": "name",
        "offset": 0,
        "slot": "0",
        "type": "t_string_storage"
      },
      {
        "astId": 8891,
        "contract": "contracts/SafePaymasterPlugin.sol:SafePaymasterPlugin",
        "label": "version",
        "offset": 0,
        "slot": "1",
        "type": "t_string_storage"
      },
      {
        "astId": 9108,
        "contract": "contracts/SafePaymasterPlugin.sol:SafePaymasterPlugin",
        "label": "indexer",
        "offset": 0,
        "slot": "2",
        "type": "t_contract(Indexer)9777"
      },
      {
        "astId": 9166,
        "contract": "contracts/SafePaymasterPlugin.sol:SafePaymasterPlugin",
        "label": "safeWhitelistedContracts",
        "offset": 0,
        "slot": "3",
        "type": "t_mapping(t_address,t_struct(AddressSet)2856_storage)"
      },
      {
        "astId": 9171,
        "contract": "contracts/SafePaymasterPlugin.sol:SafePaymasterPlugin",
        "label": "safeGuard",
        "offset": 0,
        "slot": "4",
        "type": "t_mapping(t_bytes32,t_struct(GuardInfo)9161_storage)"
      }
    ],
    "types": {
      "t_address": {
        "encoding": "inplace",
        "label": "address",
        "numberOfBytes": "20"
      },
      "t_array(t_bytes32)dyn_storage": {
        "base": "t_bytes32",
        "encoding": "dynamic_array",
        "label": "bytes32[]",
        "numberOfBytes": "32"
      },
      "t_array(t_struct(ClaimRequest)8631_storage)dyn_storage": {
        "base": "t_struct(ClaimRequest)8631_storage",
        "encoding": "dynamic_array",
        "label": "struct ClaimRequest[]",
        "numberOfBytes": "32"
      },
      "t_bool": {
        "encoding": "inplace",
        "label": "bool",
        "numberOfBytes": "1"
      },
      "t_bytes16": {
        "encoding": "inplace",
        "label": "bytes16",
        "numberOfBytes": "16"
      },
      "t_bytes32": {
        "encoding": "inplace",
        "label": "bytes32",
        "numberOfBytes": "32"
      },
      "t_bytes_storage": {
        "encoding": "bytes",
        "label": "bytes",
        "numberOfBytes": "32"
      },
      "t_contract(Indexer)9777": {
        "encoding": "inplace",
        "label": "contract Indexer",
        "numberOfBytes": "20"
      },
      "t_enum(ClaimType)8651": {
        "encoding": "inplace",
        "label": "enum ClaimType",
        "numberOfBytes": "1"
      },
      "t_mapping(t_address,t_struct(AddressSet)2856_storage)": {
        "encoding": "mapping",
        "key": "t_address",
        "label": "mapping(address => struct EnumerableSet.AddressSet)",
        "numberOfBytes": "32",
        "value": "t_struct(AddressSet)2856_storage"
      },
      "t_mapping(t_bytes32,t_struct(GuardInfo)9161_storage)": {
        "encoding": "mapping",
        "key": "t_bytes32",
        "label": "mapping(bytes32 => struct SafePaymasterPlugin.GuardInfo)",
        "numberOfBytes": "32",
        "value": "t_struct(GuardInfo)9161_storage"
      },
      "t_mapping(t_bytes32,t_uint256)": {
        "encoding": "mapping",
        "key": "t_bytes32",
        "label": "mapping(bytes32 => uint256)",
        "numberOfBytes": "32",
        "value": "t_uint256"
      },
      "t_string_storage": {
        "encoding": "bytes",
        "label": "string",
        "numberOfBytes": "32"
      },
      "t_struct(AddressSet)2856_storage": {
        "encoding": "inplace",
        "label": "struct EnumerableSet.AddressSet",
        "members": [
          {
            "astId": 2855,
            "contract": "contracts/SafePaymasterPlugin.sol:SafePaymasterPlugin",
            "label": "_inner",
            "offset": 0,
            "slot": "0",
            "type": "t_struct(Set)2541_storage"
          }
        ],
        "numberOfBytes": "64"
      },
      "t_struct(Bytes32Set)2735_storage": {
        "encoding": "inplace",
        "label": "struct EnumerableSet.Bytes32Set",
        "members": [
          {
            "astId": 2734,
            "contract": "contracts/SafePaymasterPlugin.sol:SafePaymasterPlugin",
            "label": "_inner",
            "offset": 0,
            "slot": "0",
            "type": "t_struct(Set)2541_storage"
          }
        ],
        "numberOfBytes": "64"
      },
      "t_struct(ClaimRequest)8631_storage": {
        "encoding": "inplace",
        "label": "struct ClaimRequest",
        "members": [
          {
            "astId": 8618,
            "contract": "contracts/SafePaymasterPlugin.sol:SafePaymasterPlugin",
            "label": "claimType",
            "offset": 0,
            "slot": "0",
            "type": "t_enum(ClaimType)8651"
          },
          {
            "astId": 8620,
            "contract": "contracts/SafePaymasterPlugin.sol:SafePaymasterPlugin",
            "label": "groupId",
            "offset": 1,
            "slot": "0",
            "type": "t_bytes16"
          },
          {
            "astId": 8622,
            "contract": "contracts/SafePaymasterPlugin.sol:SafePaymasterPlugin",
            "label": "groupTimestamp",
            "offset": 0,
            "slot": "1",
            "type": "t_bytes16"
          },
          {
            "astId": 8624,
            "contract": "contracts/SafePaymasterPlugin.sol:SafePaymasterPlugin",
            "label": "value",
            "offset": 0,
            "slot": "2",
            "type": "t_uint256"
          },
          {
            "astId": 8626,
            "contract": "contracts/SafePaymasterPlugin.sol:SafePaymasterPlugin",
            "label": "isOptional",
            "offset": 0,
            "slot": "3",
            "type": "t_bool"
          },
          {
            "astId": 8628,
            "contract": "contracts/SafePaymasterPlugin.sol:SafePaymasterPlugin",
            "label": "isSelectableByUser",
            "offset": 1,
            "slot": "3",
            "type": "t_bool"
          },
          {
            "astId": 8630,
            "contract": "contracts/SafePaymasterPlugin.sol:SafePaymasterPlugin",
            "label": "extraData",
            "offset": 0,
            "slot": "4",
            "type": "t_bytes_storage"
          }
        ],
        "numberOfBytes": "160"
      },
      "t_struct(GuardInfo)9161_storage": {
        "encoding": "inplace",
        "label": "struct SafePaymasterPlugin.GuardInfo",
        "members": [
          {
            "astId": 9151,
            "contract": "contracts/SafePaymasterPlugin.sol:SafePaymasterPlugin",
            "label": "claims",
            "offset": 0,
            "slot": "0",
            "type": "t_array(t_struct(ClaimRequest)8631_storage)dyn_storage"
          },
          {
            "astId": 9154,
            "contract": "contracts/SafePaymasterPlugin.sol:SafePaymasterPlugin",
            "label": "contractAllowedMethods",
            "offset": 0,
            "slot": "1",
            "type": "t_struct(Bytes32Set)2735_storage"
          },
          {
            "astId": 9158,
            "contract": "contracts/SafePaymasterPlugin.sol:SafePaymasterPlugin",
            "label": "timesPerAddress",
            "offset": 0,
            "slot": "3",
            "type": "t_mapping(t_bytes32,t_uint256)"
          },
          {
            "astId": 9160,
            "contract": "contracts/SafePaymasterPlugin.sol:SafePaymasterPlugin",
            "label": "allowedTimesPerAddress",
            "offset": 0,
            "slot": "4",
            "type": "t_uint256"
          }
        ],
        "numberOfBytes": "160"
      },
      "t_struct(Set)2541_storage": {
        "encoding": "inplace",
        "label": "struct EnumerableSet.Set",
        "members": [
          {
            "astId": 2536,
            "contract": "contracts/SafePaymasterPlugin.sol:SafePaymasterPlugin",
            "label": "_values",
            "offset": 0,
            "slot": "0",
            "type": "t_array(t_bytes32)dyn_storage"
          },
          {
            "astId": 2540,
            "contract": "contracts/SafePaymasterPlugin.sol:SafePaymasterPlugin",
            "label": "_indexes",
            "offset": 0,
            "slot": "1",
            "type": "t_mapping(t_bytes32,t_uint256)"
          }
        ],
        "numberOfBytes": "64"
      },
      "t_uint256": {
        "encoding": "inplace",
        "label": "uint256",
        "numberOfBytes": "32"
      }
    }
  }
}